:020000040800F2
:1000000000000220FD0B0008A90B0008AB0B000844
:10001000AD0B0008AF0B0008B10B0008000000009A
:10002000000000000000000000000000B30B00080A
:10003000B50B000800000000B70B0008B90B000862
:100040004D0C00084D0C00084D0C00084D0C00082C
:100050004D0C00084D0C00084D0C00084D0C00081C
:100060004D0C00084D0C00084D0C00084D0C00080C
:100070004D0C00084D0C00084D0C00084D0C0008FC
:100080004D0C00084D0C00084D0C0008000000004D
:100090000000000000000000000000004D0C0008FF
:1000A0004D0C00084D0C00084D0C00084D0C0008CC
:1000B000BD0B00084D0C00084D0C0008C90B0008D2
:1000C000D50B00084D0C00084D0C00084D0C000825
:1000D0004D0C00084D0C00084D0C000800000000FD
:1000E000E10B00084D0C00084D0C0008000000005A
:1000F0000000000000000000000000004D0C00089F
:10010000000000004D0C00084D0C00084D0C0008CC
:1001100000000000000000000000000000000000DF
:100120004D0C00084D0C00084D0C00084D0C00084B
:100130004D0C00080000000000000000000000005E
:100140000000000000000000000000004D0C00084E
:100150004D0C00084D0C00084D0C00084D0C00081B
:100160004D0C00084D0C00080000000000000000CD
:10017000000000000000000000000000000000007F
:10018000000000004D0C000800000000000000000E
:080190004D0C00084D0C0008A5
:1001980010B5054C237833B9044B13B10448AFF3B9
:1001A80000800123237010BD100000200000000013
:1001B8002C29000808B5034B1BB103490348AFF3CA
:1001C800008008BD00000000140000202C29000851
:1001D80053B94AB9002908BF00281CBF4FF0FF31A6
:1001E8004FF0FF3000F074B9ADF1080C6DE904CEA2
:1001F80000F006F8DDF804E0DDE9022304B07047FA
:100208002DE9F047089D04468E46002B4DD18A42C1
:10021800944669D9B2FA82F252B101FA02F3C2F1F4
:10022800200120FA01F10CFA02FC41EA030E944085
:100238004FEA1C48210CBEFBF8F61FFA8CF708FBA6
:1002480016E341EA034306FB07F199420AD91CEB7E
:10025800030306F1FF3080F01F81994240F21C81B0
:10026800023E63445B1AA4B2B3FBF8F008FB1033F8
:1002780044EA034400FB07F7A7420AD91CEB04042D
:1002880000F1FF3380F00A81A74240F207816444FD
:10029800023840EA0640E41B00261DB1D440002382
:1002A800C5E900433146BDE8F0878B4209D9002DE6
:1002B80000F0EF800026C5E9000130463146BDE870
:1002C800F087B3FA83F6002E4AD18B4202D38242DA
:1002D80000F2F980841A61EB030301209E46002D89
:1002E800E0D0C5E9004EDDE702B9FFDEB2FA82F2DE
:1002F800002A40F09280A1EB0C014FEA1C471FFA3C
:100308008CFE0126200CB1FBF7F307FB131140EA22
:1003180001410EFB03F0884208D91CEB010103F1EF
:10032800FF3802D2884200F2CB804346091AA4B2B1
:10033800B1FBF7F007FB101144EA01440EFB00FE85
:10034800A64508D91CEB040400F1FF3102D2A645EA
:1003580000F2BB800846A4EB0E0440EA03409CE789
:10036800C6F12007B34022FA07FC4CEA030C20FA36
:1003780007F401FA06F31C43F9404FEA1C4900FA56
:1003880006F3B1FBF9F8200C1FFA8CFE09FB1811D3
:1003980040EA014108FB0EF0884202FA06F20BD946
:1003A8001CEB010108F1FF3A80F08880884240F296
:1003B8008580A8F102086144091AA4B2B1FBF9F0DA
:1003C80009FB101144EA014100FB0EFE8E4508D9D5
:1003D8001CEB010100F1FF346CD28E456AD902385A
:1003E800614440EA0840A0FB0294A1EB0E01A1423F
:1003F800C846A64656D353D05DB1B3EB080261EBAD
:100408000E0101FA07F722FA06F3F1401F43C5E986
:10041800007100263146BDE8F087C2F12003D840BC
:100428000CFA02FC21FA03F3914001434FEA1C47FE
:100438001FFA8CFEB3FBF7F007FB10360B0C43EAF0
:10044800064300FB0EF69E4204FA02F408D91CEBA0
:10045800030300F1FF382FD29E422DD9023863449E
:100468009B1B89B2B3FBF7F607FB163341EA03413E
:1004780006FB0EF38B4208D91CEB010106F1FF388D
:1004880016D28B4214D9023E6144C91A46EA004684
:1004980038E72E46284605E70646E3E61846F8E616
:1004A8004B45A9D2B9EB020864EB0C0E0138A3E75F
:1004B8004646EAE7204694E74046D1E7D0467BE740
:1004C800023B614432E7304609E76444023842E7B8
:1004D800704700BF092870B501F1010607D830231D
:1004E8000B700A223146BDE8704002F0CFB90A24E9
:1004F800B0FBF4F504FB15002246C0B202F0C6F9C1
:10050800224631462846EEE773B50C46054601A952
:100518008078FFF7DFFF9DF8043023703A269DF8B6
:1005280005306370A670687801A9FFF7D3FF9DF8BE
:100538000430E3709DF8053023716671287801A9AD
:10054800FFF7C8FF9DF80430A3719DF80530E371EB
:100558000023237202B070BD08B5124B020359691B
:1005680002F480520A435A615969020302F40052A4
:100578000A435A615969020302F480420A435A61E4
:100588005A69000300F400401043586101220648EC
:10059800402100F09DFCBDE80840034800224021AE
:1005A80000F096BC000402400008024010B500228A
:1005B80004464FF48071084800F08AFC064800227F
:1005C800802100F085FC2009FFF7C6FF04F00F002A
:1005D800BDE81040FFF7C0BF0008024038B52D4CF9
:1005E8002D4D636962692B40534063610F2002F00F
:1005F800FDF80320FFF7B0FF052002F0F7F8636964
:1006080062692B40534063610320FFF7A5FF6369CC
:1006180062692B40534063610220FFF79DFF05206C
:1006280002F0E4F82820FFF7C1FF052002F0DEF809
:10063800636962692B40534063610E20FFF7B6FF80
:10064800052002F0D3F8636962692B405340636167
:100658000220FFF7ABFF052002F0C8F86369626962
:100668002B40534063610120FFF7A0FF052002F0F3
:10067800BDF8636962692B40534063610620FFF748
:1006880095FF052002F0B2F8636962691D40554084
:10069800656138BD0004024000F0FFFF70B5104CE2
:1006A800104E6269636932405A40054662610E48DD
:1006B80001224FF4807100F00BFC00220A488021CF
:1006C80000F006FC2809FFF747FF636962693340B9
:1006D8005340636105F00F00BDE87040FFF73CBF71
:1006E8000004024000F0FFFF0008024010B5044675
:1006F80014F8010BFFF7D2FF2378002BF8D110BDB7
:1007080010B586B0184C1022002102A802F0C0F8DB
:1007180042F210724FF080410023C4E9001242F205
:10072800D002CDE90033C4E90323A3602046802327
:10073800A36101F0ADFE08B172B6FEE74FF4805335
:1007480002A92046029301F0D9FE08B172B6FEE76D
:10075800CDE900006946204601F040FD08B172B6B7
:10076800FEE706B010BD00BF800000202DE9F04173
:1007780014228AB00DEB0200002102F089F800244F
:10078800384B01941A6BDFF8E880374F374D42F049
:1007980004021A631A6B02F004020192019A02948D
:1007A8001A6B42F080021A631A6B02F080020292FE
:1007B800029A03941A6B42F001021A631A6B02F050
:1007C80001020392039A04941A6B42F002021A631C
:1007D8001B6B03F002030493224640462021049B2E
:1007E80000F076FB224638464FF4704100F070FB6B
:1007F800224628464FF4E07100F06AFB4FF400529D
:100808004FF4041305A92846CDE9052301260794CA
:1008180000F096FA202305A94046CDE90536CDE932
:10082800074400F08DFA4FF4704305A93846CDE926
:100838000536CDE9074400F083FA4FF4E07305A9C3
:100848002846CDE90536CDE9074400F079FA224675
:100858002146282000F00AFA282000F039FA0AB0C8
:10086800BDE8F08100380240000402400008024060
:10087800000002400A480B4A08B54FF4E133C0E9CA
:10088800002300230C22C0E90233C0E905230361D9
:10089800C36101F02DFF08B172B6FEE708BD00BFC5
:1008A800C80000200044004008B50A480A4A0B4B1B
:1008B800C0E9002300234FF48042C0E90233C0E9B5
:1008C8000423C0E90633036200F014FB08B172B6D2
:1008D800FEE708BD2C00002000540040A08601005F
:1008E8000268044B9A4201BF034A1378013313701C
:1008F800704700BF800000200000002010B594B0B1
:100908001422002109A801F0C3FF1422002103A822
:1009180001F0BEFF00231E4A0193116C41F0805183
:100928001164126C02F080520192019A194A0293E2
:10093800116841F4404111601268022402F44042F7
:100948004FF4A870CDE90E4302920423CDE91103B8
:10095800029A08941022012108A8CDE90B121092DE
:10096800139301F0A1F908B172B6FEE70F23CDE9A0
:1009780003344FF48053CDE906300590214603A88F
:1009880001F070FB08B172B6FEE714B010BD00BFED
:1009980000380240007000401FB501F0FBFE01F076
:1009A800F9FEFFF7ABFFFFF7E1FEFFF763FFFFF785
:1009B8007BFFFFF7A5FE01F0EDFEFFF79FFFFFF7B6
:1009C800D5FEFFF757FFFFF76FFFFFF799FE01F01E
:1009D800E1FEFFF793FFFFF7C9FEFFF74BFFFFF7B5
:1009E80063FF01F0D7FEFFF789FFFFF7BFFEFFF7B0
:1009F80041FFFFF759FFFFF781FFFFF7B7FEFFF74A
:100A080039FFFFF751FF064801A9FFF77DFDFFF702
:100A1800E5FD01A8FFF76AFE024801F017FCFEE7B2
:100A2800000000208000002082B00D4B00210091C2
:100A38005A6C42F480425A645A6C02F48042009222
:100A4800009A01911A6C42F080521A641B6C03F0F0
:100A580080530193019B072002B000F0F5B800BF56
:100A68000038024010B5044688B01422002103A8BB
:100A780001F00EFF22681C4B9A4233D11B4C1C48D4
:100A880000220192236B43F002032363236B03F0DC
:100A980002030193C022019B1223CDE90323012104
:100AA8000323CDE90513042303A9079300F048F9AC
:100AB80000220292236C43F400132364236C03F492
:100AC8000013114602931F20029B00F0CFF81F204D
:100AD80000F0FEF800222020114600F0C7F8202080
:100AE80000F0F6F808B010BD00540040003802408D
:100AF800000402400368B3F1804F07B516D1002205
:100B080003F50E330192196C41F0010119641B6C55
:100B180003F00103019311461C20019B00F0A6F885
:100B28001C2003B05DF804EB00F0D2B803B05DF808
:100B380004FB000010B5044688B01422002103A865
:100B480001F0A6FE2268144B9A4222D103F5FA332B
:100B5800002101911A6C114842F400321A641A6C8F
:100B680002F400320192019A02911A6B42F00102DA
:100B78001A631B6B03F001030293029B0C220223EE
:100B88000321CDE903230723CDE9061303A900F0C8
:100B9800D7F808B010BD00BF004400400000024074
:100BA800FEE7FEE7FEE7FEE7FEE77047704770479F
:100BB80001F00ABE014801F07BBB00BF80000020A5
:100BC800014800F0A3BB00BF2C000020014800F042
:100BD800D1BF00BF2C0000204FF4005000F07EB9B8
:100BE800034AD2F8883043F47003C2F8883070475B
:100BF80000ED00E0DFF834D00D480E490E4A00231E
:100C080002E0D458C4500433C4188C42F9D30B4AB8
:100C18000B4C002301E013600432A242FBD3FFF720
:100C2800DFFF01F0F7FDFFF7B7FE70470000022075
:100C38000000002010000020942900081000002067
:100C480010010020FEE700000749CA6822F4E062AC
:100C58000302120403F4E063120C134343F0BF636E
:100C680043F40033CB60704700ED00E0164B30B51D
:100C7800DC68C4F30224C4F10705231D042D28BF32
:100C88000425062B4FF0FF338CBF033C002403FAE6
:100C980005F521EA0501A34022EA0302A140002844
:100CA80041EA0203ACBF00F16040084A4FEA03136F
:100CB800B8BF00F00F00DBB2AABF00F561401354C3
:100CC80080F8003330BD00BF00ED00E014ED00E017
:100CD800002808DB4209012300F01F0003FA00F096
:100CE800014B43F82200704700E100E00138B0F101
:100CF800807F0BD24FF0E023054A5861F02182F83B
:100D080023100020072298611A617047012070475C
:100D180000ED00E090F83530022B03D080234365C6
:100D2800012070470268052380F83530136823F0E6
:100D3800010313600020704790F8350070470000E9
:100D48002DE9F74FDFF884915E4A00230D680124EE
:100D58009C4004EA050CAC4340F0A5804D6805F0C2
:100D680003044FEA43080326671E06FA08F6012F14
:100D78006FEA060634D8876807EA060ECF6807FACE
:100D880008F747EA0E078760476827EA0C0EC5F39D
:100D980000179F4047EA0E074760C76807EA060E34
:100DA8008F6807FA08F747EA0E07022CC76019D1BF
:100DB8004FEAD30A00EB8A0A03F0070BDAF820702F
:100DC8004FEA8B0B4FF00F0E0EFA0BFE27EA0E0EB2
:100DD8000F6907FA0BF747EA0E07CAF8207001E017
:100DE800032CDAD1076804FA08F43E40264315F4C8
:100DF800403F066057D04FF0000ACDF804A0D9F85C
:100E08004460314C46F48046C9F84460D9F84460DF
:100E180006F480460196019E23F0030606F18046FB
:100E280006F59C3603F0030ED6F808804FEA8E0EBE
:100E38000F2707FA0EF7A04228EA07073AD004F569
:100E48008064A04238D004F58064A04236D004F50E
:100E58008064A04234D004F58064A0420CBF04240E
:100E6800072404FA0EF43C43B46094686FEA0C0655
:100E7800EF0254BF34404CEA04049460D468AF02D3
:100E880054BF34404CEA0404D4605468AF0354BFE0
:100E980034404CEA040454601468ED0354BF3440F1
:100EA8004CEA040414600133102B7FF44FAF03B0F5
:100EB800BDE8F08F5446D4E70124D2E70224D0E7F6
:100EC8000324CEE7003C0140000002400038024005
:100ED8000AB1816170470904FBE77047044A516908
:100EE800014208B502D05061FFF7F7FF08BD00BF07
:100EF800003C014070B5044608B9012070BD90F867
:100F08003D3003F0FF021BB980F83C20FFF7AAFD33
:100F1800242384F83D3023681A6822F001021A60FD
:100F28001A6842F400421A601A6822F400421A60F1
:100F380001F034F93F4B65689D4294BF3E4B3F4BEF
:100F480098428CBF00230123002BD6D12268394E4A
:100F580053683B49B0FBF1F123F03F030B43B54223
:100F6800536088BF4FF49676136A88BF714323F0A5
:100F78003F0384BF4FF47A76B1FBF6F10131194390
:100F88001162D169431E2B4821F44F41854221F05B
:100F9800FF0132D86D0040F6FC70B3FBF5F3013366
:100FA800034242D0C3F30B030B43D361D4E90730A8
:100FB8001168034321F0C0010B4313609168D4E921
:100FC800030321F40341034321F0FF010B43936022
:100FD800D4E90530D168034321F0FF010B43D36006
:100FE800136843F00103136000202023206484F871
:100FF8003D30206384F83E0080E7A06850B905EBD7
:101008004505B3FBF5F30133C3F30B037BB143F49D
:101018000043C9E719204543B3FBF5F30133C3F394
:101028000B0323B143F44043BEE70423BCE7012389
:10103800BAE700BFA08601007F841E00FF083D00BC
:1010480040420F00704770477047704770477047BD
:10105800704790F83D2008B5036DD2B283B9C36CD0
:101068000268012B836C05D1DBB21361036D023377
:10107800036508BDC3F307231361036D0133F7E765
:10108800036D012B03D1836C0268DBB2F4E7036DB7
:10109800022BEED1222A05D10268136843F480732B
:1010A8001360EAE7438D9BB263B1212A0AD1436AF0
:1010B800026813F8011B11614362438D013B9BB227
:1010C8004385D6E7438D9BB2002BD2D1212AD0D1BC
:1010D8000268516821F4E0615160116841F40071BF
:1010E80011602022036380F83D2080F83E30FFF72E
:1010F800AFFFBEE7704770477047000037B5002361
:1011080001932D4B806B1B6890F83D2046F2A81187
:10111800B3FBF1F323214B4301930368D2B2019946
:1011280041BB016C41F020010164446B0CB100210A
:10113800E163816B09B10025CD631D6825F48065E5
:101148001D600025458504B1256501B10D65196847
:1011580021F00101196090F83D10602911D1202378
:1011680080F83D30002380F83E300364FFF7C4FF69
:1011780003B030BD01990139019119688905CED4B0
:10118800D3E702F02802282A0ED1196841F001019C
:101198001960196841F4806119600023036380F8BD
:1011A8003D20FFF7A8FFE3E7202380F83D30002328
:1011B80080F83E30F5E700BF0400002010B590F835
:1011C8003D2090F83E30102BD9B204460368D2B2C5
:1011D80001D0402913D1222A11D1196821F40061C4
:1011E8001960596811F4006106D1602A1EBF2022D7
:1011F80084F83D2084F83E100022226307E002F0C4
:1012080028012829EDD10022226384F83D105A686C
:1012180012F400624FD05A68606B22F400625A6080
:1012280090F83530012B374B2BD00365FFF772FD53
:1012380050B12268606B136823F001031360202308
:1012480084F83D30036D9847236C19071FBF226847
:10125800536823F4E063536094F83D30226C5207DE
:10126800DBB20DD5282B0BD1274BE36220220023BC
:101278002363204684F83D2084F83E30FFF7E7FEDC
:1012880010BDA06B0365FFF745FD0028DCD023687F
:101298005A69510605D51A69636A1A70636A013377
:1012A80063622268A06B136823F001031360202394
:1012B80084F83D30C6E794F83D10602915D1202107
:1012C80084F83D1022645A69520605D51A69636A82
:1012D8001A70636A013363622268136823F001039A
:1012E80013602046FFF708FFAEE75A69500605D598
:1012F8001A69636A1A70636A013363622046FFF7EA
:10130800FAFEA1E7051100080000FFFFF0B5036829
:1013180004465A68C66A90F83E0094F83D101028B2
:101328008FB0C5B2C9B202D0402D40F0C0829F69CB
:10133800586910F0010F07D1B6F52A0F02D0B6F19F
:101348002A4F51D10FB0F0BD96054DD5E26AB2F5DE
:101358002A0F0CD10122E26294F83E20402A11D1D2
:10136800226D52B9626C02F0FE021A61EAE7E26A83
:10137800B2F12A4FF0D10822EDE7626C42F0010287
:10138800D2B2F2E72269B2F5804F1AD194F83D2023
:10139800212A626C11D102F0FE021A61626B0AB155
:1013A800D26B2AB9A26B002ACCD0D26B002AC9D042
:1013B8005A6842F400625A60C4E742F00102D2B2AD
:1013C800EBE7226D32B9626CD21102F0060242F0EC
:1013D800F002CAE7226D012AB4D1626CD21102F080
:1013E800060242F0F102C0E7060703D5960501D5CB
:1013F800626CE4E7860740F1DD80960540F1DA800B
:1014080094F83E10E26A256B94F83D002228C9B290
:1014180040F0C880206D40B9402906D101905A6932
:1014280001929B690193019B8CE7216D89B9206921
:10143800B0F5404F0DD102915A6902929A69029211
:10144800029A1A6842F480721A60236D0133236588
:1014580078E7618D89B251B903915A6903929A6903
:101468000392039A1A6842F400721A6019E0618DB7
:1014780089B2012949D112F5803F1BD11A6822F49B
:1014880080621A605A6812F400620CD01A6822F45A
:1014980080621A60002204925A6904929B6904933C
:1014A800049B0023D3E705925A6905929A6905922D
:1014B800059AD7E7082A1CD0202A1AD0122D0DD158
:1014C800012A16D11A6822F480621A600022069254
:1014D8005A6906929B690693069BE2E7102AF1D89F
:1014E800914921FA02F2D707ECD51A6842F48062D2
:1014F800EBE71A6822F480621A60002207925A69A0
:1015080007929A690792079AACE7618D89B2022916
:101518002AD1102A03D88449D140CE0720D419688B
:1015280021F480611960196841F4006119605968F3
:101538000D050DD512F5803F06D0511E1F2907D87D
:101548007A4ACA40D00703D55A6842F480525A6092
:10155800002208925A6908929B690893089BA0E7A1
:10156800196841F48061E1E7196841F48061196004
:10157800596809050ED512F5803F07D0013A1F2A90
:1015880008D86A4921FA02F2D20703D55A6842F408
:1015980080525A60002209925A6909929B690993FC
:1015A800099B7EE700220A925A690A929B690A936C
:1015B8000A9BC7E67F0740F18D805E6836053FF5D8
:1015C800C1AE0706C0F380063ED550053CD5002EB7
:1015D8003DD194F83D20258D94F83E10E06AD2B2B2
:1015E800C9B2C5B9212A18D1082858D0202856D000
:1015F80010F5803F53D05A6822F4E0625A601123F4
:101608002363002384F83E30202384F83D302046AD
:10161800FFF718FD96E6212A05D040297FF492AEFF
:10162800222A7FF48FAE628D92B21AB95A6822F4D8
:101638008062C0E694F83E20402A16D120460FB0BA
:10164800BDE8F040FFF705BD002E3FF47BAE9705DF
:101658007FF578AE212939D1E16A94F83D20212A15
:101668007FF470AE628D92B24AB1626A12F8011BC1
:1016780019616262638D013B9BB2638562E608294A
:101688000DD020290BD011F5803F08D0596821F4DE
:10169800E06159601123236384F83E20B4E75A6857
:1016A80022F4E0625A601A6842F400721A60002359
:1016B8002022236384F83D2094F83E2084F83E30AD
:1016C800402A2046A4D1FFF7C3FC3BE6402D7FF417
:1016D80039AEB3E759680E053FF534AE4506C0F399
:1016E80080017AD5500578D5002979D194F83D2024
:1016F800222A7FF427AE628D92B2032A18D91A697A
:10170800636A1A70636A01336362638D013B9BB23B
:101718006385638D9BB2032B7FF414AE22685368F4
:1017280023F4806353600DE614000100818000807B
:10173800E06A02283FF47AAF012A3FF677AF754A8C
:101748000B91126846F2A811B2FBF1F202EB820289
:101758000B920B9A013A0B920B99D1B9226C42F079
:10176800200222645A6822F4E0625A601A69636AA5
:101778001A70636A01336362638D013B9BB26385B0
:10178800202384F83D30204684F83E10FFF7B3FC50
:10179800D8E51A6812F40072DBD1196821F4806167
:1017A8001960596821F4E06159601969636A197010
:1017B800636A01336362638D013B9BB263852023B7
:1017C80084F83D3094F83E3084F83E20402B68D1B0
:1017D80022632046FFF78EFCB4E500293FF4B2AD42
:1017E80092057FF5AFADE26A608D616A80B2042828
:1017F80009D15A6822F480625A601B690B70636AC7
:101808000133636236E7608D80B203280CD15868D3
:10181800042A20F480605860EFD0022AEDD01A68BC
:1018280022F480621A60E8E7608D80B20228E4D171
:10183800012A01D0102A28D11A6822F480621A607D
:101848001B690B70626A531C6362638D013B9BB218
:10185800638523681B695370636A22680133636276
:10186800638D013B9BB26385536823F440735360D7
:10187800202384F83D3094F83E30402B4FF000038D
:1018880084F83E300DD12363A3E7042A01D0022A4D
:1018980003D11A6842F48062D1E71A6842F40072F0
:1018A800CDE7122323632046FFF7CDFB4AE5206CE2
:1018B80010B35869002587072ED596052CD5226CBC
:1018C80002B19D6994F83D2002F02802282A16D119
:1018D8005A6822F480625A602F066FEA95014FF029
:1018E800000354BFA289228B84F83C3001F0010127
:1018F8002046FFF7ABFB25E59D695869DBE7002229
:101908000C9259690C919B690C930C9B84F83C20B0
:1019180018E500BF04000020C60640F1B180950517
:1019280040F1AE8094F83D505A6822F4E0625A6063
:1019380000220D925A690D921A6842F001021A604B
:101948000D9A1A6822F480621A605A681005EDB27E
:1019580020D505F0F702222A4AD1A06B0268526806
:1019680092B26285628D92B21AB1226C42F0040280
:1019780022645A6822F400625A60FFF7DDF90128F0
:1019880008D0A06B794B0365FFF7C4F910B1A06BC1
:10199800036D9847638D9BB213B323685A69510747
:1019A80009D51A69636A1A70636A01336362638DC1
:1019B800013B9BB2638523685A69520609D51A69A7
:1019C800636A1A70636A01336362638D013B9BB279
:1019D8006385638D9BB21BB1236C43F004032364BE
:1019E800236C13B320460FB0BDE8F040FFF7E6BB09
:1019F800606B0268526892B26285628D92B21AB1C7
:101A0800226C42F0040222645A6822F400625A608E
:101A1800FFF792F90128BDD0606B544B0365FFF7BF
:101A280079F90028B6D0606BB2E72A2D06D1236376
:101A3800282384F83D302046FFF707FB94F83D3013
:101A4800282B0CD14A4BE362202200232363204633
:101A580084F83D2084F83E30FFF7F9FA72E4236BEE
:101A6800222B02D0222D7FF46DAC00232022236389
:101A780084F83D2084F83E302046FFF7E6FA61E41A
:101A880001F0F7012129C0F3800535D1070627D5D4
:101A9800560525D53DBB94F83D00628D92B2C0B283
:101AA800002A3FF44FAC626A12F8015B1D61626262
:101AB800628D013A92B26285628D92B2002A7FF4F9
:101AC80041AC29287FF43EAC5A6822F480625A60FF
:101AD80028232163204684F83D30FFF7B5FA31E426
:101AE800002D3FF42FAC95057FF52CAC628D92B29A
:101AF800002A3FF427ACB8E5400627D5510525D57F
:101B08003DBB94F83D20618D89B2D2B200293FF4E3
:101B180019AC1969636A1970636A01336362638D6A
:101B2800013B9BB26385638D9BB2002B7FF40AACAB
:101B38002A2A7FF407AC2268536823F48063536031
:101B480022232363282384F83D3095E7002D3FF4B2
:101B5800F9AB92057FF5F6AB628D92B2002A3FF49D
:101B6800F1AB1A69636A1A7049E600BF05110008EB
:101B78000000FFFFF8B503685F695E6890F83E20D3
:101B88000446F805D2B2C7F3002508D5F10548BFC9
:101B98006FF48071C6F3002544BF59610125B8056B
:101BA80006D5F10542BF6FF4007145F00205596191
:101BB800780536D5F10534D5608D94F83D10D4F804
:101BC80030C0202A80B2C9B25BD1002859D101F0B7
:101BD800F700212804D0282953D1BCF1210F50D176
:101BE80094F83D20E16A0829D2B201D020292AD1EF
:101BF800282A28D12B4AE2625A6822F4E0625A6005
:101C08006FF480625A611A6822F480621A600023B5
:101C180020222363204684F83D2084F83E30FFF7D5
:101C280016FA3A053BD5F30539D523686FF40062F7
:101C380045F008055A61236C1D4325642046BDE81C
:101C4800F840FFF7BBBA212A17D11649E16222638F
:101C5800202284F83D20002284F83E205A6822F48D
:101C6800E0625A606FF480625A611A6822F48062F6
:101C78001A602046FFF7E8F9D3E76FF480625A61EB
:101C8800CFE76FF48061102A596145F0040501D04F
:101C9800402AC6D11A6842F400721A60C1E7002DC2
:101CA800C9D1F8BD0000FFFF2DE9F341044640B358
:101CB8000368DD0710D4236898075ED423681A07E1
:101CC80000F1A08023685B0700F1C080A0690028AC
:101CD80040F0288100202BE08F4B9A6802F00C021C
:101CE800042A07D09A6802F00C02082A0BD15A6815
:101CF800510208D5884B1B689A03DCD56368002B12
:101D0800D9D1012014E06268B2F5803F13D11A6876
:101D180042F480321A6000F063FD7F4E0546336856
:101D28009B03C8D400F05CFD401B6428F7D903204E
:101D380002B0BDE8F081784DB2F5A02F2B6807D12D
:101D480043F480232B602B6843F480332B60E2E755
:101D580023F480332B602B6823F480232B60002A24
:101D6800D9D100F03DFD06462B689F03A3D500F0AE
:101D780037FD801B6428F7D9D9E7674B9A6812F0BA
:101D88000C0F07D09A6802F00C02082A11D15B6880
:101D98005E020ED4604A13689D0702D5E368012BE2
:101DA800AFD11368216923F0F80343EAC103136034
:101DB80084E7E268594BB2B101221A6000F010FDC5
:101DC800554D06462B68980707D52B68226923F0DE
:101DD800F80343EAC2032B6070E700F001FD801BA3
:101DE8000228EFD9A3E71A6000F0FAFC4A4E05462C
:101DF800336899077FF562AF00F0F2FC401B0228B8
:101E0800F6D994E76269454B82B10122C3F8802E66
:101E180000F0E6FC404E0546736F9F073FF552AF52
:101E280000F0DEFC401B0228F6D980E7C3F8802EBC
:101E380000F0D6FC384E0546736F98077FF542AF21
:101E480000F0CEFC401B0228F6D970E7324B1A6C22
:101E580012F0805228D101921A6C42F080521A6412
:101E68001B6C03F080530193019B01272C4D2B68B9
:101E7800D9051BD5A368284D012B27D12B6F43F01B
:101E880001032B6700F0ACFC234E054641F288386D
:101E9800336F9B0739D5002F3FF418AF1E4A136CD8
:101EA80023F08053136411E70027DFE72B6843F41E
:101EB80080732B6000F094FC06462B68DA05D9D4B1
:101EC80000F08EFC801B0228F7D930E7052B04D1DF
:101ED8002B6F43F004032B67D0E72A6F22F001022F
:101EE8002A672A6F22F004022A67002BCAD100F061
:101EF80077FC41F2883806462B6F9807CBD500F05F
:101F08006FFC801B4045F7D911E700F069FC401BC6
:101F18004045BDD90BE700BF0038024000004742EA
:101F280000700040364DAB6803F00C03082B3DD021
:101F3800344B002202281A662BD100F051FC0646C9
:101F48002B6899011FD4D4E907321343626A43EA24
:101F58008213E26A43EA0263A26A5208013A43EA38
:101F680002436B60274B264D01221A6600F038FCAD
:101F780004462B689A013FF5ADAE00F031FC001B1A
:101F88000228F6D9D3E600F02BFC801B0228D7D90B
:101F9800CDE600F025FC04462B689B017FF59AAE40
:101FA80000F01EFC001B0228F6D9C0E601283FF409
:101FB800BFAE6B68E26903F4800191427FF4A1AE81
:101FC800216A03F03F028A427FF49BAE616A47F6BA
:101FD800C0721A40B2EB811F7FF493AEA26A520816
:101FE80003F44031013AB1EB024F7FF48AAEE26A62
:101FF80003F07063B3EB026F3FF46CAE81E600BF91
:102008000038024000004742134908B58B6803F0C6
:102018000C03042B1CD0082B1CD14A684B68496858
:1020280013F4800314BF0D480D48C1F3881118BF7D
:10203800002302F03F02A1FB0001FEF7C9F8064B9E
:102048005B68C3F3014301335B00B0FBF3F008BDE9
:102058000248FCE70248FAE70038024000127A001A
:102068000024F4002DE9F0410D46044610B9012082
:10207800BDE8F081444B1A6802F007028A4228D36F
:10208800226897072DD4D00741D43F4B1A6802F035
:102098000702AA4266D8226851076CD4130707D5ED
:1020A8003A4A2169936823F4604343EAC103936081
:1020B800FFF7AAFF354B364A9B68C3F30313D35C7B
:1020C800D840344B1860344B186800F03FFB0020B0
:1020D800CEE7CAB21A701B6803F007038B42C6D159
:1020E800CEE72A4B12F0040F1EBF996841F4E05165
:1020F8009960160742BF996841F460419960234985
:10210800A0688B6823F0F00303438B60BBE7626829
:102118001E4B012A1CD11B6813F4003FA7D01B4E8D
:10212800B36823F003031343B36000F059FB41F293
:1021380088380746B368626803F00C03B3EB820F74
:10214800A3D000F04DFBC01B4045F3D903208FE717
:10215800911E01291B6802D813F0007FDEE713F0F7
:10216800020FDBE7EAB21A701B6803F00703AB4201
:102178007FF47DAF8FE70549E0688B6823F4E0536F
:1021880003438B608AE700BF003C024000380240EE
:1021980044290008040000200C000020044B054AD4
:1021A8009B68C3F38223D35C034A1068D840704706
:1021B800003802405429000804000020044B054A56
:1021C8009B68C3F34233D35C034A1068D840704716
:1021D80000380240542900080400002030B590F867
:1021E8003C30012B4FF002032AD080F83D300368C1
:1021F8000D685C689A6824F070042C435C60114C8C
:10220800A34212D0B3F1804F0FD0A4F57C44A3426F
:102218000BD004F58064A34207D004F58064A34280
:1022280003D004F59A34A34204D1496822F080020D
:102238000A439A60012380F83D30002380F83C303F
:10224800184630BD000001407047704790F83D3097
:10225800012B24D10223134A80F83D3003689342AE
:1022680012D0B3F1804F0FD0A2F57C4293420BD02D
:1022780002F58062934207D002F58062934203D050
:1022880002F59A32934204D19A6802F00702062AAC
:1022980003D01A6842F001021A600020704701203A
:1022A800704700BF00000140704770477047704793
:1022B80003681A69910710B504460ED5DA689207C3
:1022C8000BD56FF002021A61012202779B699B0706
:1022D80077D0FFF7EAFF0023237723681A695007AE
:1022E80010D5DA6851070DD56FF004021A61022281
:1022F80022779B6913F4407F204668D0FFF7D5FF0B
:102308000023237723681A6912070FD5DA681007A4
:102318000CD56FF008021A6104222277DB6999074D
:1023280020465AD0FFF7C1FF0023237723681A6994
:10233800D20610D5DA68D0060DD56FF010021A61F2
:1023480008222277DB6913F4407F20464BD0FFF741
:10235800ACFF0023237723681A69D10708D5DA6808
:10236800D20705D56FF001021A612046FEF7B8FAC8
:1023780023681A69100608D5DA68110605D56FF0C2
:1023880080021A612046FFF760FF23681A69520627
:1023980008D5DA68500605D56FF040021A61204664
:1023A800FFF785FF23681A69910622D5DA68920635
:1023B8001FD56FF0200220461A61BDE81040FFF7D4
:1023C80043BFFFF771FF2046FFF770FF83E7FFF772
:1023D8006BFF2046FFF76AFF92E7FFF765FF20468D
:1023E800FFF764FFA0E7FFF75FFF2046FFF75EFFF8
:1023F800AFE710BD244A036890420ED0B0F1804F79
:102408000BD0A2F57C42904207D002F58062904240
:1024180003D002F58062904215D14A6823F0700318
:102428001343194A904219D0B0F1804F16D0A2F543
:102438007C42904212D002F5806290420ED002F5A2
:10244800806290420AD0114A904207D002F5806219
:10245800904203D002F58062904203D1CA6823F407
:10246800407313434A6923F08003134303608B6866
:10247800C3620B688362044B984204BF0B69036311
:1024880001234361704700BF000001400040014044
:1024980010B5044630B390F83D3003F0FF021BB985
:1024A80080F83C20FEF726FB0223206884F83D30A4
:1024B800211DFFF79FFF012384F84630002084F890
:1024C8003E3084F83F3084F8403084F8413084F856
:1024D800423084F8433084F8443084F8453084F836
:1024E8003D3010BD0120FCE710B58468114324F489
:1024F8007F4441EA03232343836010BD70B590F8FD
:102508003C30012B04464FF0020300F09180012279
:1025180080F83D3080F83C200068836823F47F43CE
:1025280023F0770383600B68602B52D033D8402B9D
:1025380067D016D8202B0DD00AD833F0100109D057
:10254800012384F83D30002384F83C30104670BDE8
:10255800302BF5D1826822F07002134343F0070351
:1025680017E0502BECD14A68CE68016A056A25F05D
:1025780001050562836921F00A0123F0F00343EAAB
:1025880006130A4383610262836823F0700343F0F1
:102598005703836011E0B3F5805F0ED0B3F5005F99
:1025A8000DD0702BCCD1CB68D1E90121FFF79CFF6E
:1025B8002268936843F0770393600022C0E7CB68F2
:1025C800D1E90121FFF790FF2268936843F4804323
:1025D800F2E74D68CE68016A21F010010162826954
:1025E800036A22F4704223F0A00343EA051342EA87
:1025F800063282610362836823F0700343F0670345
:10260800C7E74A68CE68016A056A25F001050562D0
:10261800836921F00A0123F0F00343EA06130A4311
:1026280083610262836823F0700343F04703B0E7D5
:102638001A468BE70268C168136923F440530B43B9
:1026480070B51361054683680069D16803436869FA
:102658000343E86921F4164121F00C0103430B43BD
:10266800D3605369A96923F440730B4353611F4B2B
:102678009A4203D003F580639A4223D1FFF79EFD67
:10268800EB691921B3F5004FD5E90046A0FB01011C
:102698001BD1B2194FF000035B41FDF799FD64218E
:1026A800B0FBF1F501FB1503DB003233B3FBF1F3AB
:1026B80003F007025B0002EB051203F4F8731344FE
:1026C800A36070BDFFF76AFDDAE7B200B30FFDF74C
:1026D8007FFD6422B0FBF2F102FB11031B013233D0
:1026E800B3FBF2F303EB0113EAE700BF001001406C
:1026F80010B5044640B390F83D3003F0FF021BB913
:1027080080F83C20FEF716FA2268242384F83D302E
:10271800D36823F40053D3602046FFF78BFF236868
:102728001A6922F490421A615A6922F02A025A61FF
:10273800DA6842F40052DA6000202023206484F82A
:102748003D3084F83E3010BD0120FCE738B50E4A14
:102758000E4B054618784FF47A73B3FBF0F3106804
:10276800B0FBF3F0FEF7C2FA044658B90F2D09D8AA
:10277800024629464FF0FF30FEF778FA044B204610
:102788001D6038BD0120FCE704000020080000207F
:102798000C00002008B50B4B1A6842F400721A604E
:1027A8001A6842F480621A601A6842F480721A60E9
:1027B8000320FEF749FA0020FFF7C8FFFEF734F9B7
:1027C800002008BD003C0240034A044B11681B78F6
:1027D8000B441360704700BF0C0100200800002064
:1027E800014B1868704700BF0C01002038B504463B
:1027F800FFF7F6FF631C1CBF054B1B78054618BF87
:10280800E418FFF7EDFF431BA342FAD338BD00BF1E
:102818000800002070B50D4D0D4C641BA410002657
:10282800A64209D10B4D0C4C00F07CF8641BA41097
:102838000026A64205D170BD55F8043B98470136DD
:10284800EEE755F8043B98470136F2E78C29000873
:102858008C2900088C29000890290008931E222B37
:1028680010B50C4604D900230B701C46204610BD39
:102878000A2A09D1002807DA2D230B7040420121CA
:10288800214400F00DF8F1E70021F9E7FFF7E6BF72
:1028980002440346934200D1704703F8011BF9E74D
:1028A800F0B51F4C8BB005460B466E4604F1200C64
:1028B80020686168374603C7083464453E46F7D147
:1028C80021793971911E2068386022294FF0000162
:1028D80004D919700B4618460BB0F0BD581E844633
:1028E800B5FBF2F702FB175628366E440C4616F86D
:1028F800286C0CF8016F2E46B24201F101013D46E9
:10290800EED900225A541919A51AAA42E3DA10F886
:10291800015F0E780670013201F80159F4E700BF33
:102928005C290008F8B500BFF8BC08BC9E46704793
:0C293800F8B500BFF8BC08BC9E46704714
:10294400000000000000000001020304060708095B
:1029540000000000010203043031323334353637CD
:1029640038396162636465666768696A6B6C6D6E49
:102974006F707172737475767778797A00000000DD
:0829840084D8FF7F0100000070
:04298C00BD01000881
:0429900099010008A1
:102994000A0A0A000024F4000100000010000000EC
:0400000508000BFDE7
:00000001FF
