:020000040800F2
:1000000000000220A90F0008E50E0008EB0E000812
:10001000F10E0008F70E0008FD0E000800000000B9
:10002000000000000000000000000000030F0008B6
:10003000110F0008000000001F0F00082D0F00081E
:10004000F90F0008F90F0008F90F0008F90F000870
:10005000F90F0008F90F0008F90F0008F90F000860
:10006000F90F0008F90F0008F90F0008F90F000850
:10007000F90F0008F90F0008F90F0008F90F000840
:10008000F90F0008F90F0008F90F00080000000040
:10009000000000000000000000000000F90F000850
:1000A000F90F0008F90F0008F90F0008F90F000810
:1000B000390F0008F90F0008F90F00084D0F00086C
:1000C000610F0008F90F0008F90F0008F90F000888
:1000D000F90F0008F90F0008F90F000800000000F0
:1000E000750F0008F90F0008F90F00080000000064
:1000F000000000000000000000000000F90F0008F0
:1001000000000000F90F0008F90F0008F90F0008BF
:1001100000000000000000000000000000000000DF
:10012000F90F0008F90F0008F90F0008F90F00088F
:10013000F90F0008000000000000000000000000AF
:10014000000000000000000000000000F90F00089F
:10015000F90F0008F90F0008F90F0008F90F00085F
:10016000F90F0008F90F000800000000000000006F
:10017000000000000000000000000000000000007F
:1001800000000000F90F000800000000000000005F
:08019000F90F0008F90F000847
:1001980010B5054C237833B9044B13B10448AFF3B9
:1001A80000800123237010BD100000200000000013
:1001B800C04B000808B5034B1BB103490348AFF314
:1001C800008008BD0000000014000020C04B00089B
:1001D80053B94AB9002908BF00281CBF4FF0FF31A6
:1001E8004FF0FF3000F074B9ADF1080C6DE904CEA2
:1001F80000F006F8DDF804E0DDE9022304B07047FA
:100208002DE9F047089D04468E46002B4DD18A42C1
:10021800944669D9B2FA82F252B101FA02F3C2F1F4
:10022800200120FA01F10CFA02FC41EA030E944085
:100238004FEA1C48210CBEFBF8F61FFA8CF708FBA6
:1002480016E341EA034306FB07F199420AD91CEB7E
:10025800030306F1FF3080F01F81994240F21C81B0
:10026800023E63445B1AA4B2B3FBF8F008FB1033F8
:1002780044EA034400FB07F7A7420AD91CEB04042D
:1002880000F1FF3380F00A81A74240F207816444FD
:10029800023840EA0640E41B00261DB1D440002382
:1002A800C5E900433146BDE8F0878B4209D9002DE6
:1002B80000F0EF800026C5E9000130463146BDE870
:1002C800F087B3FA83F6002E4AD18B4202D38242DA
:1002D80000F2F980841A61EB030301209E46002D89
:1002E800E0D0C5E9004EDDE702B9FFDEB2FA82F2DE
:1002F800002A40F09280A1EB0C014FEA1C471FFA3C
:100308008CFE0126200CB1FBF7F307FB131140EA22
:1003180001410EFB03F0884208D91CEB010103F1EF
:10032800FF3802D2884200F2CB804346091AA4B2B1
:10033800B1FBF7F007FB101144EA01440EFB00FE85
:10034800A64508D91CEB040400F1FF3102D2A645EA
:1003580000F2BB800846A4EB0E0440EA03409CE789
:10036800C6F12007B34022FA07FC4CEA030C20FA36
:1003780007F401FA06F31C43F9404FEA1C4900FA56
:1003880006F3B1FBF9F8200C1FFA8CFE09FB1811D3
:1003980040EA014108FB0EF0884202FA06F20BD946
:1003A8001CEB010108F1FF3A80F08880884240F296
:1003B8008580A8F102086144091AA4B2B1FBF9F0DA
:1003C80009FB101144EA014100FB0EFE8E4508D9D5
:1003D8001CEB010100F1FF346CD28E456AD902385A
:1003E800614440EA0840A0FB0294A1EB0E01A1423F
:1003F800C846A64656D353D05DB1B3EB080261EBAD
:100408000E0101FA07F722FA06F3F1401F43C5E986
:10041800007100263146BDE8F087C2F12003D840BC
:100428000CFA02FC21FA03F3914001434FEA1C47FE
:100438001FFA8CFEB3FBF7F007FB10360B0C43EAF0
:10044800064300FB0EF69E4204FA02F408D91CEBA0
:10045800030300F1FF382FD29E422DD9023863449E
:100468009B1B89B2B3FBF7F607FB163341EA03413E
:1004780006FB0EF38B4208D91CEB010106F1FF388D
:1004880016D28B4214D9023E6144C91A46EA004684
:1004980038E72E46284605E70646E3E61846F8E616
:1004A8004B45A9D2B9EB020864EB0C0E0138A3E75F
:1004B8004646EAE7204694E74046D1E7D0467BE740
:1004C800023B614432E7304609E76444023842E7B8
:1004D800704700BF80B584B000AF786039607B6832
:1004E8009B7807F10C021146184600F037F83A7B62
:1004F8003B681A703B6801337A7B1A703B68023399
:100508003A221A707B685B7807F10C02114618468C
:1005180000F024F83B6803333A7B1A703B680433D5
:100528007A7B1A703B6805333A221A707B681B780D
:1005380007F10C021146184600F010F83B68063324
:100548003A7B1A703B6807337A7B1A703B6808332A
:1005580000221A7000BF1037BD4680BD80B582B03A
:1005680000AF03463960FB71FB79092B0AD83B6859
:1005780030221A70F8793B6801330A22194604F0D0
:10058800CFFA1CE0FA79104BA3FB0213D9080B46EB
:100598009B000B445B00D31ADBB20A223968184669
:1005A80004F0BEFAFB79084AA2FB0323DB08DBB29E
:1005B80018463B6801330A22194604F0B1FA00BF15
:1005C8000837BD4680BD00BFCDCCCCCC80B500AFD0
:1005D800464B5B6923F47F6323F00F03434A526958
:1005E800424953404B610F2004F03AFA032000F0CF
:1005F8007FF8052004F034FA3C4B5B6923F47F63F1
:1006080023F00F03394A5269384953404B6103209C
:1006180000F06EF8642000F02FF9344B5B6923F486
:100628007F6323F00F03314A5269304953404B61CD
:10063800022000F05DF8052004F012FA282000F0EE
:100648008DF8052004F00CFA284B5B6923F47F63CE
:1006580023F00F03254A5269244953404B610E2069
:1006680000F07CF8052004F0FBF9204B5B6923F4CB
:100678007F6323F00F031D4A52691C4953404B61A5
:10068800022000F06BF8052004F0EAF9174B5B69CB
:1006980023F47F6323F00F03144A5269134953402C
:1006A8004B61012000F05AF8052004F0D9F90F4BEE
:1006B8005B6923F47F6323F00F030C4A52690B49EB
:1006C80053404B61062000F049F8052004F0C8F9B2
:1006D800064B5B6923F47F6323F00F03034A5269D7
:1006E800024953404B6100BF80BD00BF0004024077
:1006F80080B582B000AF0346FB71174B5A69FB798E
:100708001B0303F48053144913434B61124B5A697A
:10071800FB795B08DBB25B0303F400530E49134318
:100728004B610D4B5A69FB799B08DBB29B0303F4C1
:100738008043094913434B61074B5A69FB79DB082E
:10074800DBB2DB039BB2044913434B6100F02AF888
:1007580000BF0837BD4680BD0004024080B582B0A6
:1007680000AF0346FB7100224FF480710C4800F083
:1007780007FF002280210A4800F002FFFB791B09CD
:10078800DBB21846FFF7B4FFFB7903F00F03DBB2C7
:100798001846FFF7ADFF00BF0837BD4680BD00BF54
:1007A8000008024080B500AF01224021074800F050
:1007B800E7FE642000F060F800224021034800F0C2
:1007C800DFFE642000F058F800BF80BD000802403A
:1007D80080B582B000AF78607B685A1C7A601B785D
:1007E800184600F00DF8642000F046F87B681B7886
:1007F800002BF1D100BF00BF0837BD4680BD000007
:1008080080B582B000AF0346FB71194B5B6923F4D6
:100818007F6323F00F03164A5269154953404B6111
:1008280001224FF48071134800F0AAFE00228021B3
:10083800104800F0A5FEFB791B09DBB21846FFF74C
:1008480057FF0B4B5B6923F47F6323F00F03084AC0
:100858005269074953404B61FB7903F00F03DBB240
:100868001846FFF745FF00BF0837BD4680BD00BFEB
:10087800000402400008024080B485B000AF03467F
:10088800FB71FB799BB21A46920013441A469100F9
:100898001A460B4613449B007B810023FB6002E051
:1008A800FB680133FB607B89FA689A42F8DB00BF7A
:1008B80000BF1437BD465DF8047B704780B582B031
:1008C80000AF04F05BF800F063F800F071F900F095
:1008D80045F900F0C7F800F05BF800F069F900F09E
:1008E8003DF900F0BFF800F0EBF81623FB7108495A
:1008F8000848FFF7EFFDFFF769FE0A2004F0B0F89B
:100908000348FFF765FF044803F002FAFEE700BF5B
:100918000C010020000000208000002080B582B07B
:1009280000AF78607B681B68B3F1804F25D1154B09
:100938001B780133DAB2134B1A70134B5B6923F43B
:100948007F6323F00F03104A52690F4953404B61EC
:100958000220FFF703FF0C4B5B6923F47F6323F04E
:100968000F03094A5269084953404B610749054832
:10097800FFF7B0FD0548FFF72BFF00BF0837BD465E
:1009880080BD00BF00000020000402400C010020D0
:1009980080B594B000AF07F120033022002118463B
:1009A80004F0C0F807F10C0300221A605A609A603C
:1009B800DA601A610023BB60284B1B6C274A43F09E
:1009C80080531364254B1B6C03F08053BB60BB68DA
:1009D80000237B60224B1B68214A43F44043136089
:1009E8001F4B1B6803F440437B607B6802233B6218
:1009F8000123FB6210233B630223BB630023FB63D9
:100A080010233B644FF4A8737B640423BB64042362
:100A1800FB6407F12003184602F010FC0346002B84
:100A280001D000F067F90F23FB6002233B6100232C
:100A38007B614FF48053BB610023FB6107F10C031A
:100A48000221184602F072FE0346002B01D000F086
:100A580051F900BF5037BD4680BD00BF0038024085
:100A68000070004080B500AF124B134A1A60114B5A
:100A7800124A5A600F4B00229A600E4B0022DA602D
:100A88000C4B4FF480421A610A4B00225A61094B01
:100A980000229A61074B0022DA61064B00221A6293
:100AA800044800F0ABFD0346002B01D000F022F90A
:100AB80000BF80BD2C00002000540040A08601002B
:100AC80080B586B000AF07F1080300221A605A60AB
:100AD8009A60DA603B4600221A605A601E4B4FF05B
:100AE80080421A601C4B42F210725A601A4B002264
:100AF8009A60194B42F2D002DA60174B00221A6151
:100B0800154B80229A61144803F0B2F80346002B73
:100B180001D000F0EFF84FF48053BB6007F10803F1
:100B280019460D4803F05EFA0346002B01D000F089
:100B3800E1F800233B6000237B603B4619460648EA
:100B480003F014F80346002B01D000F0D3F800BFDF
:100B58001837BD4680BD00BF8000002080B500AFBB
:100B6800114B124A1A60104B4FF4E1325A600E4B87
:100B780000229A600C4B0022DA600B4B00221A61AB
:100B8800094B0C225A61084B00229A61064B00223D
:100B9800DA61054803F030FC0346002B01D000F071
:100BA800A9F800BF80BD00BFC80000200044004075
:100BB80080B58AB000AF07F1140300221A605A60AA
:100BC8009A60DA601A6100233B61464B1B6B454A09
:100BD80043F004031363434B1B6B03F004033B61B3
:100BE8003B690023FB603F4B1B6B3E4A43F080038D
:100BF80013633C4B1B6B03F08003FB60FB68002313
:100C0800BB60384B1B6B374A43F001031363354B0A
:100C18001B6B03F00103BB60BB6800237B60314B97
:100C28001B6B304A43F0020313632E4B1B6B03F01C
:100C380002037B607B68002220212B4800F0A0FC87
:100C480000224FF47041294800F09AFC00224FF42A
:100C5800E071274800F094FC4FF400537B614FF497
:100C68000413BB610023FB6107F1140319462048F4
:100C780000F002FB20237B610123BB610023FB61A1
:100C880000233B6207F114031946174800F0F4FAF1
:100C98004FF470437B610123BB610023FB61002398
:100CA8003B6207F114031946104800F0E5FA4FF4C7
:100CB800E0737B610123BB610023FB6100233B627E
:100CC80007F1140319460A4800F0D6FA0022002159
:100CD800282000F06AFA282000F083FA00BF28379D
:100CE800BD4680BD003802400000024000040240BA
:100CF8000008024080B400AF72B600BFFEE70000F3
:100D080080B582B000AF00237B60104B5B6C0F4A4C
:100D180043F4804353640D4B5B6C03F480437B6066
:100D28007B6800233B60094B1B6C084A43F08053E7
:100D38001364064B1B6C03F080533B603B68072031
:100D480000F028FA00BF0837BD4680BD00380240D1
:100D580080B58AB000AF786007F1140300221A60EA
:100D68005A609A60DA601A617B681B68214A93426C
:100D78003BD100233B61204B1B6B1F4A43F002030E
:100D880013631D4B1B6B03F002033B613B69C023DC
:100D98007B611223BB610123FB6103233B620423B4
:100DA8007B6207F114031946144800F065FA002322
:100DB800FB60114B1B6C104A43F4001313640E4B79
:100DC8001B6C03F40013FB60FB68002200211F204A
:100DD80000F0EBF91F2000F004FA00220021202087
:100DE80000F0E3F9202000F0FCF900BF2837BD46E9
:100DF80080BD00BF0054004000380240000402409B
:100E080080B584B000AF78607B681B68B3F1804F11
:100E180015D10023FB600C4B1B6C0B4A43F00103FC
:100E28001364094B1B6C03F00103FB60FB68002291
:100E380000211C2000F0B9F91C2000F0D2F900BFF5
:100E48001037BD4680BD00BF0038024080B58AB06B
:100E580000AF786007F1140300221A605A609A60A4
:100E6800DA601A617B681B68194A93422BD1002308
:100E78003B61184B1B6C174A43F400331364154B42
:100E88001B6C03F400333B613B690023FB60114B8F
:100E98001B6B104A43F0010313630E4B1B6B03F0EB
:100EA8000103FB60FB680C237B610223BB61002309
:100EB800FB6103233B6207237B6207F11403194696
:100EC800054800F0D9F900BF2837BD4680BD00BFEE
:100ED80000440040003802400000024080B400AFE7
:100EE800FEE780B400AFFEE780B400AFFEE780B451
:100EF80000AFFEE780B400AFFEE780B400AF00BFEC
:100F0800BD465DF8047B704780B400AF00BFBD46A6
:100F18005DF8047B704780B400AF00BFBD465DF844
:100F2800047B704780B500AF03F07AFD00BF80BD39
:100F380080B500AF024802F04DFF00BF80BD00BF82
:100F48008000002080B500AF024800F09BFC00BF85
:100F580080BD00BF2C00002080B500AF024800F023
:100F680002FE00BF80BD00BF2C00002080B500AF8E
:100F78004FF4005000F01EFB00BF80BD80B400AFEE
:100F8800064BD3F88830054A43F47003C2F888301A
:100F980000BFBD465DF8047B704700BF00ED00E070
:100FA800DFF834D00D480E490E4A002302E0D45829
:100FB800C4500433C4188C42F9D30B4A0B4C002399
:100FC80001E013600432A242FBD3FFF7D7FF03F01E
:100FD8006BFDFFF773FC7047000002200000002043
:100FE80010000020284C0008100000201C010020E0
:100FF800FEE7000080B485B000AF78607B6803F03E
:101008000703FB600C4BDB68BB60BA684FF6FF0355
:101018001340BB60FB681A02BB68134343F0BF630D
:1010280043F40033BB60044ABB68D36000BF143785
:10103800BD465DF8047B704700ED00E080B400AF6A
:10104800044BDB681B0A03F007031846BD465DF82E
:10105800047B704700ED00E080B483B000AF034626
:10106800FB7197F90730002B0BDBFB7903F01F02AC
:10107800074997F907305B09012000FA02F241F8A5
:10108800232000BF0C37BD465DF8047B704700BFC6
:1010980000E100E080B483B000AF03463960FB7123
:1010A80097F90730002B0ADB3B68DAB20C4997F94D
:1010B80007301201D2B20B4483F800230AE03B68E0
:1010C800DAB20849FB7903F00F03043B1201D2B2EC
:1010D8000B441A7600BF0C37BD465DF8047B704799
:1010E80000E100E000ED00E080B489B000AFF860F6
:1010F800B9607A60FB6803F00703FB61FB69C3F121
:101108000703042B28BF0423BB61FB690433062BA8
:1011180002D9FB69033B00E000237B614FF0FF32FB
:10112800BB6902FA03F3DA43BB681A407B699A4049
:101138004FF0FF317B6901FA03F3D9437B680B4019
:10114800134318462437BD465DF8047B70470000FA
:1011580080B582B000AF78607B68013BB3F1807FD7
:1011680001D301230FE00A4A7B68013B53600F213A
:101178004FF0FF30FFF78EFF054B00229A60044BBB
:1011880007221A60002318460837BD4680BD00BFF5
:1011980010E000E080B582B000AF78607868FFF7B3
:1011A80029FF00BF0837BD4680BD80B586B000AFB7
:1011B8000346B9607A60FB7300237B61FFF73EFF4B
:1011C80078617A68B9687869FFF78EFF024697F9FF
:1011D8000F3011461846FFF75DFF00BF1837BD46B0
:1011E80080BD80B582B000AF0346FB7197F9073028
:1011F8001846FFF731FF00BF0837BD4680BD80B5F0
:1012080082B000AF78607868FFF7A2FF03461846FF
:101218000837BD4680BD80B483B000AF78607B6876
:1012280093F83530DBB2022B04D07B6880225A65F4
:1012380001230CE07B68052283F835207B681B6856
:101248001A687B681B6822F001021A60002318469E
:101258000C37BD465DF8047B704780B483B000AF9F
:1012680078607B6893F83530DBB218460C37BD469A
:101278005DF8047B7047000080B489B000AF7860E7
:10128800396000237B6100233B610023BB6100239D
:10129800FB6159E10122FB6902FA03F37B613B68B8
:1012A8001B687A6913403B613A697B699A4240F04E
:1012B80048813B685B6803F00303012B05D03B685A
:1012C8005B6803F00303022B30D17B689B68BB612A
:1012D800FB695B00032202FA03F3DB43BA6913409C
:1012E800BB613B68DA68FB695B0002FA03F3BA6921
:1012F8001343BB617B68BA699A607B685B68BB61B2
:101308000122FB6902FA03F3DB43BA691340BB61AC
:101318003B685B681B0903F00102FB6902FA03F3EF
:10132800BA691343BB617B68BA695A603B685B68FA
:1013380003F00303032B17D07B68DB68BB61FB69F1
:101348005B00032202FA03F3DB43BA691340BB6173
:101358003B689A68FB695B0002FA03F3BA691343B6
:10136800BB617B68BA69DA603B685B6803F00303BA
:10137800022B23D1FB69DA087B68083253F8223044
:10138800BB61FB6903F007039B000F2202FA03F31A
:10139800DB43BA691340BB613B681A69FB6903F018
:1013A80007039B0002FA03F3BA691343BB61FB69A5
:1013B800DA087B680832B96943F822107B681B6831
:1013C800BB61FB695B00032202FA03F3DB43BA69E2
:1013D8001340BB613B685B6803F00302FB695B0079
:1013E80002FA03F3BA691343BB617B68BA691A60EE
:1013F8003B685B6803F44033002B00F0A2800023B5
:10140800FB60574B5B6C564A43F480435364544B20
:101418005B6C03F48043FB60FB68524AFB699B08E2
:10142800023352F82330BB61FB6903F003039B00CE
:101438000F2202FA03F3DB43BA691340BB617B68EE
:10144800494A934219D07B68484A934213D07B6833
:10145800474A93420DD07B68464A934207D07B683F
:10146800454A934201D1042308E0072306E00323F9
:1014780004E0022302E0012300E00023FA6902F0FD
:10148800030292009340BA691343BB613549FB6973
:101498009B080233BA6941F82320384B9B68BB612B
:1014A8003B69DB43BA691340BB613B685B6803F483
:1014B8008013002B03D0BA693B691343BB612F4AE1
:1014C800BB6993602D4BDB68BB613B69DB43BA6941
:1014D8001340BB613B685B6803F40013002B03D027
:1014E800BA693B691343BB61244ABB69D360234B88
:1014F8005B68BB613B69DB43BA691340BB613B680E
:101508005B6803F40033002B03D0BA693B691343CB
:10151800BB611A4ABB695360184B1B68BB613B69C6
:10152800DB43BA691340BB613B685B6803F48033F3
:10153800002B03D0BA693B691343BB610F4ABB69EF
:101548001360FB690133FB61FB690F2B7FF6A2AEC9
:1015580000BF00BF2437BD465DF8047B704700BF5D
:1015680000380240003801400000024000040240F8
:1015780000080240000C024000100240003C0140FC
:1015880080B483B000AF78600B467B8013467B70D5
:101598007B78002B03D07A887B689A6103E07B888C
:1015A8001A047B689A6100BF0C37BD465DF8047B5E
:1015B8007047000080B582B000AF0346FB80084B3F
:1015C8005A69FB881340002B06D0054AFB885361F3
:1015D800FB88184600F006F800BF0837BD4680BDF6
:1015E800003C014080B483B000AF0346FB8000BFDD
:1015F8000C37BD465DF8047B7047000080B584B0A9
:1016080000AF78607B68002B01D101232BE17B6858
:1016180093F83D30DBB2002B06D17B68002283F8BB
:101628003C207868FFF794FB7B68242283F83D20F0
:101638007B681B681A687B681B6822F001021A60C5
:101648007B681B681A687B681B6842F400421A6052
:101658007B681B681A687B681B6822F400421A6062
:1016680002F05CFAF8607B685B68814A934207D8AD
:10167800FB68804A934294BF01230023DBB206E053
:10168800FB687D4A934294BF01230023DBB2002B01
:1016980001D00123E7E0FB68784AA2FB03239B0CF7
:1016A800BB607B681B685B6823F03F017B681B6835
:1016B800BA680A435A607B681B681B6A23F03F01BB
:1016C8007B685B686A4A934202D8BB68013309E0C9
:1016D800BB684FF4967202FB03F3694AA2FB03232B
:1016E8009B0901337A6812680B4313627B681B6895
:1016F800DB6923F44F4222F0FF027B685B685C4998
:101708008B4219D8FB68591E7B685B685B00B1FB8C
:10171800F3F3591C40F6FC730B40002B0AD0FB680E
:10172800591E7B685B685B00B1FBF3F30133C3F3BD
:101738000B0351E004234FE07B689B68002B11D119
:10174800FB68581E7B6859680B465B000B44B0FB6E
:10175800F3F30133C3F30B03002B0CBF0123002366
:10176800DBB212E0FB68581E7B6859680B469B0089
:101778000B4499000B44B0FBF3F30133C3F30B03A1
:10178800002B0CBF01230023DBB2002B01D0012367
:1017980022E07B689B68002B0ED1FB68581E7B6893
:1017A80059680B465B000B44B0FBF3F30133C3F3FA
:1017B8000B0343F400430FE0FB68581E7B6859682D
:1017C8000B469B000B4499000B44B0FBF3F3013329
:1017D800C3F30B0343F44043796809681343CB61AF
:1017E8007B681B681B6823F0C0017B68DA697B682B
:1017F8001B6A1A437B681B680A431A607B681B686C
:101808009B6823F4034323F0FF037A6811697A681D
:10181800D26811437A6812680B4393607B681B682F
:10182800DB6823F0FF017B685A697B689B691A4370
:101838007B681B680A43DA607B681B681A687B68E8
:101848001B6842F001021A607B6800221A647B68F8
:10185800202283F83D207B6800221A637B680022DF
:1018680083F83E20002318461037BD4680BD00BFD0
:10187800A08601007F841E00FF083D0083DE1B4315
:10188800D34D621080B588B000AF78600023BB618B
:101898007B681B685B687B617B68DB6A3B617B6894
:1018A80093F83E30FB737B6893F83D30BB73FB7B4A
:1018B800102B03D0FB7B402B40F0C1807B681B685A
:1018C8009B69BB617B681B685B69FB61FB6903F013
:1018D8000103002B0DD13B69B3F52A0F03D03B69F7
:1018E800B3F12A4F01D1012300E00023012B00F0BE
:1018F8003281FB6903F00103002B0CD07B695B0A82
:1019080003F00103002B06D0786801F07BFC7868AF
:1019180000F083FD92E0FB69DB0803F00103002B74
:1019280009D07B695B0A03F00103002B03D07868B8
:1019380000F0F9FD82E0FB695B0803F00103002B6E
:1019480009D07B695B0A03F00103002B03D0786898
:1019580000F013FE72E0BB699B0803F00103002B43
:101968003BD07B681B685B6803F40063B3F5006FCA
:1019780000F0F380FB69DB0903F00103002B0FD0B3
:101988007B699B0A03F00103002B09D0FB699B08C4
:1019980003F00103002B03D1786800F0F3F94DE060
:1019A800FB699B0803F00103002B00F0D6807B69DC
:1019B8005B0A03F00103002B00F0CF80BB7B212BD7
:1019C80003D1786800F07AFAC7E0FB7B402B40F03F
:1019D800C480786800F0E8FABFE07B681B685B6841
:1019E80003F40063B3F5006F00F0B780FB699B094F
:1019F80003F00103002B0FD07B699B0A03F001035E
:101A0800002B09D0FB699B0803F00103002B03D1CD
:101A1800786800F05DFB11E0FB699B0803F00103A7
:101A2800002B00F09A807B695B0A03F00103002B0E
:101A380000F09380786800F006FC8EE08DE07B680B
:101A48001B6C002B04D07B681B685B69FB6107E09B
:101A58007B681B689B69BB617B681B685B69FB6172
:101A6800FB695B0803F00103002B12D07B695B0A5A
:101A780003F00103002B0CD07B681B6C002B03D0F8
:101A88007B681B689B69BB61B969786800F0C4FF13
:101A980066E0FB691B0903F00103002B09D07B6991
:101AA8005B0A03F00103002B03D0786800F0FEFF07
:101AB80056E0BB7B212B02D0BB7B292B25D1FB69B0
:101AC800DB0903F00103002B0FD07B699B0A03F0AD
:101AD8000103002B09D0FB699B0803F00103002BCD
:101AE80003D1786800F0DAFE39E0FB699B0803F05F
:101AF8000103002B33D07B695B0A03F00103002B41
:101B08002DD0786800F007FF29E0FB699B0903F0F6
:101B18000103002B0FD07B699B0A03F00103002B04
:101B280009D0FB699B0803F00103002B03D17868F7
:101B380000F012FF14E0FB699B0803F00103002B7F
:101B48000ED07B695B0A03F00103002B08D078688C
:101B580000F040FF04E000BF02E000BF00E000BF6B
:101B68002037BD4680BD80B58AB000AF78607B68FD
:101B78001B685B693B627B681B685B68FB610023D1
:101B88007B627B6893F83E30FB763B6A1B0A03F066
:101B98000103002B0ED0FB691B0A03F00103002B85
:101BA80008D07B6A43F001037B627B681B686FF493
:101BB80080725A613B6A5B0A03F00103002B0ED066
:101BC800FB691B0A03F00103002B08D07B6A43F072
:101BD80002037B627B681B686FF400725A613B6A80
:101BE8009B0A03F00103002B3FD0FB691B0A03F09B
:101BF8000103002B39D0FB7EBB767B685B8D9BB2E3
:101C08007B617B6893F83D30FB747B681B6BFB60E2
:101C1800BB7E202B12D17B69002B0FD1FB7C212BA3
:101C280008D0FB7C292B05D0FB7C282B06D1FB6830
:101C3800212B03D1786801F069F816E07B681B68EE
:101C48006FF480625A617B6A43F004037B62FB7E17
:101C5800102B02D0FB7E402B07D17B681B681A68CB
:101C68007B681B6842F400721A603B6ADB0A03F067
:101C78000103002B0ED0FB691B0A03F00103002BA4
:101C880008D07B6A43F008037B627B681B686FF4AB
:101C980000625A617B6A002B08D07B681A6C7B6AE9
:101CA8001A437B681A64786801F0A0F800BF2837E7
:101CB800BD4680BD80B483B000AF786000BF0C37EC
:101CC800BD465DF8047B704780B483B000AF786090
:101CD80000BF0C37BD465DF8047B704780B483B005
:101CE80000AF786000BF0C37BD465DF8047B7047D5
:101CF80080B483B000AF786000BF0C37BD465DF894
:101D0800047B704780B483B000AF78600B46FB70EB
:101D180013463B8000BF0C37BD465DF8047B704717
:101D280080B483B000AF786000BF0C37BD465DF863
:101D3800047B704780B483B000AF786000BF0C3775
:101D4800BD465DF8047B704780B483B000AF78600F
:101D580000BF0C37BD465DF8047B704780B483B084
:101D680000AF786000BF0C37BD465DF8047B704754
:101D780080B483B000AF786000BF0C37BD465DF813
:101D8800047B704780B584B000AF78607B6893F8B7
:101D98003D30FB737B6893F83E30BB737B68DB6A2E
:101DA800BB607B681B8D002B50D1FB7B212B4DD159
:101DB800BB68082B1DD0BB68202B1AD0BB6813F555
:101DC800803F16D07B681B685A687B681B6822F4C2
:101DD800E0625A607B6811221A637B68002283F8EC
:101DE8003E207B68202283F83D207868FFF762FF59
:101DF80060E07B681B685A687B681B6822F4E062B5
:101E08005A607B681B681A687B681B6842F400721A
:101E18001A607B6800221A637B68202283F83D20C1
:101E28007B6893F83E30DBB2402B07D17B680022F9
:101E380083F83E207868FFF77DFF3BE07B6800224F
:101E480083F83E207868FFF735FF33E0FB7B212BD2
:101E580005D0BB7B402B2DD1FB7B222B2AD17B6865
:101E68005B8D9BB2002B08D17B681B685A687B6826
:101E78001B6822F480625A601CE07B6893F83E304D
:101E8800DBB2402B03D1786800F08EF812E07B6853
:101E98005B6A1A787B681B681A617B685B6A5A1CE4
:101EA8007B685A627B685B8D9BB2013B9AB27B6808
:101EB8005A85FFE700BF1037BD4680BD80B584B0A6
:101EC80000AF78607B68DB6AFB607B6893F83D3025
:101ED800DBB2212B64D17B685B8D9BB2002B12D0C7
:101EE8007B685B6A1A787B681B681A617B685B6A27
:101EF8005A1C7B685A627B685B8D9BB2013B9AB225
:101F08007B685A854CE0FB68082B1DD0FB68202BAA
:101F18001AD0FB6813F5803F16D07B681B685A6897
:101F28007B681B6822F4E0625A607B6811221A639E
:101F38007B68002283F83E207B68202283F83D20BE
:101F48007868FFF7B7FE2BE07B681B685A687B68E8
:101F58001B6822F4E0625A607B681B681A687B6819
:101F68001B6842F400721A607B6800221A637B685F
:101F7800202283F83D207B6893F83E30DBB2402B6B
:101F880007D17B68002283F83E207868FFF7D2FEED
:101F980006E07B68002283F83E207868FFF78AFE17
:101FA80000BF1037BD4680BD80B584B000AF7860F3
:101FB8007B6893F83D30FB737B681B6D002B1DD14C
:101FC8007B68DB6C012B0BD17B689B6CDAB27B687E
:101FD8001B681A617B681B6D9A1C7B681A6573E025
:101FE8007B689B6C9BB21B12DAB27B681B681A6118
:101FF8007B681B6D5A1C7B681A6565E07B681B6DE6
:10200800012B0BD17B689B6CDAB27B681B681A6169
:102018007B681B6D5A1C7B681A6555E07B681B6DD5
:10202800022B51D1FB7B222B0DD17B681B681A68D0
:102038007B681B6842F480721A607B681B6D5A1CAF
:102048007B681A6540E07B685B8D9BB2002B15D0DE
:10205800FB7B212B12D17B685B6A1A787B681B6833
:102068001A617B685B6A5A1C7B685A627B685B8D65
:102078009BB2013B9AB27B685A8525E07B685B8DF1
:102088009BB2002B20D1FB7B212B1DD17B681B68C9
:102098005A687B681B6822F4E0625A607B681B6898
:1020A8001A687B681B6842F400721A607B68002219
:1020B8001A637B68202283F83D207B68002283F81E
:1020C8003E207868FFF736FE00BF1037BD4680BD5A
:1020D80080B584B000AF78607B6893F83D30DBB2A0
:1020E800222B40F0AC807B685B8D9BB2FB60FB6869
:1020F800032B21D97B681B681A697B685B6AD2B29B
:102108001A707B685B6A5A1C7B685A627B685B8DB5
:102118009BB2013B9AB27B685A857B685B8D9BB208
:10212800032B40F08C807B681B685A687B681B68AF
:1021380022F480625A6082E07B68DB6A022B75D0E9
:10214800FB68012B02D0FB68002B6FD1786801F087
:1021580027F80346002B42D17B681B681A687B6806
:102168001B6822F480621A607B681B685A687B6867
:102178001B6822F4E0625A607B681B681A697B68F6
:102188005B6AD2B21A707B685B6A5A1C7B685A62B7
:102198007B685B8D9BB2013B9AB27B685A857B68F2
:1021A800202283F83D207B6893F83E30DBB2402B39
:1021B8000AD17B68002283F83E207B6800221A63DC
:1021C8007868FFF7C1FD3AE07B68002283F83E207B
:1021D8007B6812221A637868FFF776FD2FE07B6828
:1021E8001B685A687B681B6822F4E0625A607B6847
:1021F8001B681A697B685B6AD2B21A707B685B6A73
:102208005A1C7B685A627B685B8D9BB2013B9AB211
:102218007B685A857B68202283F83D207B680022F2
:1022280083F83E207868FFF799FD08E07B681B6813
:102238005A687B681B6822F480625A60FFE700BF17
:102248001037BD4680BD80B584B000AF78607B682C
:10225800DB6AFB607B685B8D9BB2042B1BD17B68C0
:102268001B685A687B681B6822F480625A607B6826
:102278001B681A697B685B6AD2B21A707B685B6AF2
:102288005A1C7B685A627B685B8D9BB2013B9AB291
:102298007B685A85BDE07B685B8D9BB2032B29D197
:1022A8007B681B685A687B681B6822F480625A60E6
:1022B800FB68042B0AD0FB68022B07D07B681B68DD
:1022C8001A687B681B6822F480621A607B681B6846
:1022D8001A697B685B6AD2B21A707B685B6A5A1C9F
:1022E8007B685A627B685B8D9BB2013B9AB27B68C4
:1022F8005A858EE07B685B8D9BB2022B76D1FB689A
:10230800012B02D0FB68102B08D17B681B681A6868
:102318007B681B6822F480621A6019E0FB68042B52
:1023280002D0FB68022B08D17B681B681A687B689F
:102338001B6842F480621A600AE0FB68102B07D021
:102348007B681B681A687B681B6842F400721A6015
:102358007B681B681A697B685B6AD2B21A707B68F3
:102368005B6A5A1C7B685A627B685B8D9BB2013B37
:102378009AB27B685A857B681B681A697B685B6AB6
:10238800D2B21A707B685B6A5A1C7B685A627B6897
:102398005B8D9BB2013B9AB27B685A857B681B6850
:1023A8005A687B681B6822F440725A607B68202256
:1023B80083F83D207B6893F83E30DBB2402B0AD18E
:1023C8007B68002283F83E207B6800221A637868C5
:1023D800FFF7BAFC1DE07B68002283F83E207B688B
:1023E80012221A637868FFF76FFC12E07B681B689B
:1023F8001A697B685B6AD2B21A707B685B6A5A1C7E
:102408007B685A627B685B8D9BB2013B9AB27B68A2
:102418005A8500BF1037BD4680BD80B483B000AF79
:1024280078607B6893F83E30DBB2402B17D17B682D
:102438001B6D002B09D17B685B6CDBB21A467B688D
:102448001B6802F0FE021A6167E07B685B6CDBB216
:1024580043F00103DAB27B681B681A615DE07B68B0
:102468001B69B3F5804F33D17B6893F83D30DBB2FD
:10247800212B09D17B685B6CDBB21A467B681B6831
:1024880002F0FE021A6108E07B685B6CDBB243F085
:102498000103DAB27B681B681A617B685B6B002BEF
:1024A80004D07B685B6BDB6B002B08D17B689B6B74
:1024B800002B32D07B689B6BDB6B002B2DD07B68AD
:1024C8001B685A687B681B6842F400625A6024E003
:1024D8007B681B6D002B0ED17B685B6C9BB2DB119C
:1024E800DBB203F00603DBB263F00F03DAB27B68FA
:1024F8001B681A6111E07B681B6D012B0DD17B688D
:102508005B6C9BB2DB11DBB203F00603DBB263F05A
:102518000E03DAB27B681B681A6100BF0C37BD4630
:102528005DF8047B704780B483B000AF78607B6847
:102538005B6CDAB27B681B681A617B685B6B002B8B
:1025480004D07B685B6BDB6B002B08D17B689B6BD3
:10255800002B0CD07B689B6BDB6B002B07D07B6858
:102568001B685A687B681B6842F400625A6000BFA7
:102578000C37BD465DF8047B704780B491B000AF5E
:1025880078607B6893F83E3087F83F307B68DB6A79
:10259800BB637B681B6B7B637B6893F83D30DBB266
:1025A800222B40F069817B681B6D002B0FD197F8B7
:1025B8003F30402B0BD100233B637B681B685B6972
:1025C8003B637B681B689B693B633B6B60E17B6893
:1025D8001B6D002B1DD17B681B69B3F5404F18D1CB
:1025E8000023FB627B681B685B69FB627B681B6876
:1025F8009B69FB62FB6A7B681B681A687B681B68BF
:1026080042F480721A607B681B6D5A1C7B681A65DD
:102618003EE17B685B8D9BB2002B13D10023BB622C
:102628007B681B685B69BB627B681B689B69BB62D4
:10263800BB6A7B681B681A687B681B6842F4007277
:102648001A6015E17B685B8D9BB2012B40F08A8094
:10265800BB6B13F5803F37D17B681B681A687B68B2
:102668001B6822F480621A607B681B685B6803F44D
:102678000063B3F5006F13D17B681B681A687B6829
:102688001B6822F480621A6000237B627B681B68E7
:102698005B697B627B681B689B697B627B6AE7E09E
:1026A80000233B627B681B685B693B627B681B6835
:1026B8009B693B623B6A7B681B681A687B681B687E
:1026C80042F400721A60D3E0BB6B082B2ED0BB6BB0
:1026D800202B2BD07B6B122B02D1BB6B012B25D16E
:1026E800BB6B042B0ED0BB6B022B0BD0BB6B102B20
:1026F80008D07B681B681A687B681B6822F48062B4
:102708001A6007E07B681B681A687B681B6842F4DC
:1027180080621A600023FB617B681B685B69FB6150
:102728007B681B689B69FB61FB69A1E07B681B6890
:102738001A687B681B6822F480621A600023BB61F8
:102748007B681B685B69BB617B681B689B69BB61B5
:10275800BB697B681B681A687B681B6842F4007257
:102768001A6085E07B685B8D9BB2022B4DD1BB6BF9
:10277800042B16D0BB6B022B13D0BB6B102B10D0C5
:102788007B681B681A687B681B6822F480621A6081
:102798007B681B681A687B681B6842F400621A60D1
:1027A80007E07B681B681A687B681B6842F48062D4
:1027B8001A607B681B685B6803F40063B3F5006FFD
:1027C80017D1BB6B13F5803F0BD0BB6B012B08D027
:1027D800BB6B082B05D0BB6B102B02D0BB6B202B1F
:1027E80007D17B681B685A687B681B6842F4805273
:1027F8005A6000237B617B681B685B697B617B682F
:102808001B689B697B617B6932E07B681B681A687F
:102818007B681B6842F480621A607B681B685B688F
:1028280003F40063B3F5006F17D1BB6B13F5803F5A
:102838000BD0BB6B012B08D0BB6B082B05D0BB6B37
:10284800102B02D0BB6B202B07D17B681B685A6802
:102858007B681B6842F480525A6000233B617B68A6
:102868001B685B693B617B681B689B693B613B69D3
:102878007B6800221A650BE00023FB607B681B68FD
:102888005B69FB607B681B689B69FB60FB68FFE713
:1028980000BF4437BD465DF8047B704780B584B0FF
:1028A80000AF78607B6893F83D30FB737B685B8D85
:1028B8009BB2002B2BD07B685B6A1A787B681B68FD
:1028C8001A617B685B6A5A1C7B685A627B685B8DFD
:1028D8009BB2013B9AB27B685A857B685B8D9BB241
:1028E800002B14D1FB7B292B11D17B681B685A68FC
:1028F8007B681B6822F480625A607B6821221A6315
:102908007B68282283F83D207868FFF7E7F900BF45
:102918001037BD4680BD80B483B000AF78607B6857
:102928005B8D9BB2002B11D07B685B6A1A787B6841
:102938001B681A617B685B6A5A1C7B685A627B68F1
:102948005B8D9BB2013B9AB27B685A8500BF0C37FE
:10295800BD465DF8047B704780B584B000AF7860F1
:102968007B6893F83D30FB737B685B8D9BB2002BD3
:102978002CD07B681B681A697B685B6AD2B21A70B4
:102988007B685B6A5A1C7B685A627B685B8D9BB26A
:10299800013B9AB27B685A857B685B8D9BB2002BA2
:1029A80014D1FB7B2A2B11D17B681B685A687B6882
:1029B8001B6822F480625A607B6822221A637B6853
:1029C800282283F83D207868FFF792F900BF103776
:1029D800BD4680BD80B483B000AF78607B685B8DF6
:1029E8009BB2002B12D07B681B681A697B685B6AF4
:1029F800D2B21A707B685B6A5A1C7B685A627B6821
:102A08005B8D9BB2013B9AB27B685A8500BF0C373D
:102A1800BD465DF8047B704780B584B000AF786030
:102A280039600023FB737B6893F83D30DBB203F019
:102A38002803282B27D17B681B685A687B681B688A
:102A480022F480625A603B689B0803F00103002B64
:102A580001D10123FB733B68DB0903F00103002B61
:102A680003D17B68DB68BB8102E07B689B69BB8123
:102A78007B68002283F83C20BA89FB7B194678687A
:102A8800FFF740F90EE00023BB607B681B685B69B9
:102A9800BB607B681B689B69BB60BB687B68002266
:102AA80083F83C2000BF1037BD4680BD80B584B098
:102AB80000AF78607B6893F83D30FB737B681B68D8
:102AC8005A687B681B6822F4E0625A600023BB6086
:102AD8007B681B685B69BB607B681B681A687B68DE
:102AE8001B6842F001021A60BB687B681B681A68A1
:102AF8007B681B6822F480621A607B681B685B68CD
:102B080003F40063B3F5006F72D1FB7B222B02D074
:102B1800FB7B2A2B35D17B689B6B1B685B689AB261
:102B28007B685A857B685B8D9BB2002B05D07B68E0
:102B38001B6C43F004027B681A647B681B685A6844
:102B48007B681B6822F400625A607B689B6B18469E
:102B5800FEF783FB0346012B49D07B689B6B694AD0
:102B68001A657B689B6B1846FEF755FB0346002BDE
:102B78003DD07B689B6B1B6D7A68926B10469847BB
:102B880035E07B685B6B1B685B689AB27B685A852B
:102B98007B685B8D9BB2002B05D07B681B6C43F078
:102BA80004027B681A647B681B685A687B681B6828
:102BB80022F400625A607B685B6B1846FEF74DFB97
:102BC8000346012B14D07B685B6B4E4A1A657B6801
:102BD8005B6B1846FEF71FFB0346002B08D07B688B
:102BE8005B6B1B6D7A68526B1046984700E000BF1C
:102BF8007B685B8D9BB2002B3ED07B681B685B6952
:102C080003F00403042B12D17B681B681A697B68E4
:102C18005B6AD2B21A707B685B6A5A1C7B685A621C
:102C28007B685B8D9BB2013B9AB27B685A857B6857
:102C38001B685B6903F04003402B12D17B681B685B
:102C48001A697B685B6AD2B21A707B685B6A5A1C25
:102C58007B685A627B685B8D9BB2013B9AB27B684A
:102C68005A857B685B8D9BB2002B05D07B681B6CFB
:102C780043F004027B681A647B681B6C002B03D04A
:102C8800786800F0B3F839E0FB7B2A2B09D17B6820
:102C980000221A637B68282283F83D207868FFF7B2
:102CA80027F87B6893F83D30DBB2282B11D17B687D
:102CB800154ADA627B6800221A637B68202283F84F
:102CC8003D207B68002283F83E207868FFF728F8CB
:102CD80014E07B681B6B222B02D0FB7B222B0DD1CF
:102CE8007B6800221A637B68202283F83D207B687A
:102CF800002283F83E207868FEF7FAFF00BF1037FD
:102D0800BD4680BD593000080000FFFF80B584B083
:102D180000AF78607B6893F83D30FB737B68DB6AB3
:102D2800BB60BB68082B02D0BB68202B29D1FB7B7A
:102D3800282B26D17B682C4ADA627B681B685A6884
:102D48007B681B6822F4E0625A607B681B686FF43A
:102D580080625A617B681B681A687B681B6822F46A
:102D680080621A607B6800221A637B68202283F8DD
:102D78003D207B68002283F83E207868FEF7D0FF6C
:102D88002EE0FB7B212B26D17B68174ADA627B6811
:102D980021221A637B68202283F83D207B68002269
:102DA80083F83E207B681B685A687B681B6822F49E
:102DB800E0625A607B681B686FF480625A617B68C6
:102DC8001B681A687B681B6822F480621A6078683E
:102DD800FEF784FF04E07B681B686FF480625A6129
:102DE80000BF1037BD4680BD0000FFFF80B584B02E
:102DF80000AF78607B6893F83D30FB737B6893F88D
:102E08003E30BB73BB7B102B02D0BB7B402B0AD15F
:102E1800FB7B222B07D17B681B681A687B681B68C1
:102E280022F400621A60FB7B03F02803282B07D1E9
:102E38007B6800221A637B68282283F83D2015E00E
:102E48007B681B685B6803F40063B3F5006F0AD006
:102E5800FB7B602B07D07B68202283F83D207B68B2
:102E6800002283F83E207B6800221A637B681B6877
:102E78005B6803F40063B3F5006F62D17B681B687D
:102E88005A687B681B6822F400625A607B685B6B37
:102E980093F83530DBB2012B20D07B685B6B6A4A34
:102EA8001A657B685B6B1846FEF7B5F90346002B7D
:102EB80000F089807B681B681A687B681B6822F0B1
:102EC80001021A607B68202283F83D207B685B6BD7
:102ED8001B6D7A68526B1046984774E07B689B6B51
:102EE800594A1A657B689B6B1846FEF794F90346A6
:102EF800002B68D07B681B685B6903F04003402B9C
:102F08000BD17B681B681A697B685B6AD2B21A703E
:102F18007B685B6A5A1C7B685A627B681B681A6804
:102F28007B681B6822F001021A607B68202283F804
:102F38003D207B689B6B1B6D7A68926B10469847A7
:102F480041E07B6893F83D30DBB2602B25D17B688C
:102F5800202283F83D207B6800221A647B681B6866
:102F68005B6903F04003402B0BD17B681B681A692F
:102F78007B685B6AD2B21A707B685B6A5A1C7B6892
:102F88005A627B681B681A687B681B6822F001021A
:102F98001A607868FEF7ECFE15E07B681B685B69D1
:102FA80003F04003402B0BD17B681B681A697B68D0
:102FB8005B6AD2B21A707B685B6A5A1C7B685A6279
:102FC8007868FEF7CBFE7B681B6CBB60BB6803F0C0
:102FD8000103002B0ED1BB6803F00203002B09D1BB
:102FE800BB6803F00403002B04D1BB6803F008039B
:102FF800002B07D07B681B685A687B681B6822F423
:10300800E0625A607B6893F83D30FB737B681B6C09
:1030180003F00403042B13D1FB7B282B10D17B680E
:103028000A4ADA627B6800221A637B68202283F8E6
:103038003D207B68002283F83E207868FEF770FE0A
:1030480000BF1037BD4680BD593000080000FFFFA3
:1030580080B586B000AF78600023FB607B689B6B0F
:103068007B617B6993F83D30FB744B4B1B68DB0835
:103078004A4AA2FB03231A0A13469B001344DA00A8
:10308800D31AFB60FB68002B06D17B691B6C43F0ED
:1030980020027B691A640AE0FB68013BFB607B69DC
:1030A8001B681B6803F40073B3F5007FEAD07B69E3
:1030B8005B6B002B03D07B695B6B0022DA637B6957
:1030C8009B6B002B03D07B699B6B0022DA637B69C7
:1030D8001B681A687B691B6822F480621A607B6926
:1030E80000225A857B695B6B002B03D07B695B6B85
:1030F80000221A657B699B6B002B03D07B699B6B55
:1031080000221A657B691B681A687B691B6822F0B4
:1031180001021A607B6993F83D30DBB2602B0ED157
:103128007B69202283F83D207B69002283F83E20BA
:103138007B6900221A647869FEF71AFE27E0FB7C97
:1031480003F02803282B17D17B691B681A687B6951
:103158001B6842F001021A607B691B681A687B6968
:103168001B6842F480621A607B6900221A637B69DB
:10317800282283F83D2007E07B69202283F83D2040
:103188007B69002283F83E207869FEF7E7FD00BFDF
:103198001837BD4680BD00BF0400002089B5F8146B
:1031A80080B485B000AF78600023FB60134B1B68C8
:1031B800DB08134AA2FB03231A0A13469B00134495
:1031C800FB60FB68013BFB60FB68002B07D17B6859
:1031D8001B6C43F020027B681A64012308E07B68BB
:1031E8001B681B6803F40073B3F5007FE9D0002364
:1031F80018461437BD465DF8047B7047040000206C
:1032080089B5F81480B483B000AF78607B68DB6A56
:10321800B3F52A0F03D17B680122DA6207E07B68E5
:10322800DB6AB3F12A4F02D17B680822DA6200BF59
:103238000C37BD465DF8047B7047000080B586B04A
:1032480000AF78607B68002B01D1012367E27B68BF
:103258001B6803F00103002B75D0884B9B6803F0B3
:103268000C03042B0CD0854B9B6803F00C03082B34
:1032780012D1824B5B6803F48003B3F5800F0BD146
:103288007E4B1B6803F40033002B5BD07B685B68C4
:10329800002B57D1012342E27B685B68B3F5803F7E
:1032A80006D1764B1B68754A43F4803313601DE0E2
:1032B8007B685B68B3F5A02F0CD1704B1B686F4A15
:1032C80043F4802313606D4B1B686C4A43F48033CE
:1032D80013600BE0694B1B68684A23F48033136062
:1032E800664B1B68654A23F4802313607B685B6820
:1032F800002B13D001F0A8FB386108E001F0A4FB13
:1033080002463B69D31A642B01D9032307E25B4BBE
:103318001B6803F40033002BF0D014E001F094FB99
:10332800386108E001F090FB02463B69D31A642B30
:1033380001D90323F3E1514B1B6803F40033002B3D
:10334800F0D100E000BF7B681B6803F00203002B8C
:1033580063D04A4B9B6803F00C03002B0BD0474B00
:103368009B6803F00C03082B1CD1444B5B6803F4E7
:103378008003002B16D1414B1B6803F00203002B7E
:1033880005D07B68DB68012B01D00123C7E13B4BEB
:103398001B6823F0F8027B681B69DB00374913437D
:1033A8000B603AE07B68DB68002B20D0344B0122AD
:1033B8001A6001F049FB386108E001F045FB02465C
:1033C8003B69D31A022B01D90323A8E12B4B1B68B5
:1033D80003F00203002BF0D0284B1B6823F0F802FF
:1033E8007B681B69DB00254913430B6015E0244B00
:1033F80000221A6001F028FB386108E001F024FB84
:1034080002463B69D31A022B01D9032387E11B4BE0
:103418001B6803F00203002BF0D17B681B6803F0E4
:103428000803002B36D07B685B69002B16D0154B40
:1034380001221A6001F008FB386108E001F004FB82
:1034480002463B69D31A022B01D9032367E10B4BD0
:103458005B6F03F00203002BF0D01BE0094B002246
:103468001A6001F0F1FA38610EE001F0EDFA024657
:103478003B69D31A022B07D9032350E100380240D5
:1034880000004742800E4742884B5B6F03F00203FF
:10349800002BEAD17B681B6803F00403002B00F0C3
:1034A80097800023FB75814B1B6C03F08053002B26
:1034B8000FD10023BB607D4B1B6C7C4A43F08053CB
:1034C80013647A4B1B6C03F08053BB60BB68012309
:1034D800FB75774B1B6803F48073002B18D1744B72
:1034E8001B68734A43F48073136001F0ADFA3861C6
:1034F80008E001F0A9FA02463B69D31A022B01D968
:1035080003230CE16A4B1B6803F48073002BF0D093
:103518007B689B68012B06D1644B1B6F634A43F0A1
:10352800010313671CE07B689B68052B0CD15F4B7C
:103538001B6F5E4A43F0040313675C4B1B6F5B4AC7
:1035480043F0010313670BE0584B1B6F574A23F0F6
:1035580001031367554B1B6F544A23F00403136789
:103568007B689B68002B15D001F06EFA38610AE081
:1035780001F06AFA02463B69D31A41F28832934253
:1035880001D90323CBE0494B1B6F03F00203002B47
:10359800EED014E001F058FA38610AE001F054FA6C
:1035A80002463B69D31A41F28832934201D9032378
:1035B800B5E03E4B1B6F03F00203002BEED1FB7D01
:1035C800012B05D1394B1B6C384A23F08053136407
:1035D8007B689B69002B00F0A180344B9B6803F04B
:1035E8000C03082B5CD07B689B69022B41D1314BC3
:1035F80000221A6001F028FA386108E001F024FA84
:1036080002463B69D31A022B01D9032387E0274BD3
:103618001B6803F00073002BF0D17B68DA697B68C4
:103628001B6A1A437B685B6A9B011A437B689B6A27
:103638005B08013B1B041A437B68DB6A1B061B49BA
:1036480013434B601B4B01221A6001F0FDF93861EE
:1036580008E001F0F9F902463B69D31A022B01D9B7
:1036680003235CE0114B1B6803F00073002BF0D0C0
:1036780054E0104B00221A6001F0E6F9386108E0C6
:1036880001F0E2F902463B69D31A022B01D9032360
:1036980045E0064B1B6803F00073002BF0D13DE0BA
:1036A8007B689B69012B07D1012338E00038024071
:1036B80000700040600047421B4B5B68FB607B6802
:1036C8009B69012B28D0FB6803F480027B68DB69C7
:1036D8009A4221D1FB6803F03F027B681B6A9A4239
:1036E8001AD1FA6847F6C07313407A68526A920191
:1036F800934211D1FB6803F440327B689B6A5B08F4
:10370800013B1B049A4207D1FB6803F070627B6897
:10371800DB6A1B069A4201D0012300E00023184609
:103728001837BD4680BD00BF0038024080B584B060
:1037380000AF786039607B68002B01D10123CCE0B1
:10374800684B1B6803F007033A689A420CD9654B2B
:103758003A68D2B21A70634B1B6803F007033A68E1
:103768009A4201D00123B8E07B681B6803F002038A
:10377800002B20D07B681B6803F00403002B05D0C6
:10378800594B9B68584A43F4E05393607B681B6825
:1037980003F00803002B05D0534B9B68524A43F4AF
:1037A80060439360504B9B6823F0F0027B689B68F2
:1037B8004D4913438B607B681B6803F00103002BA2
:1037C80044D07B685B68012B07D1474B1B6803F427
:1037D8000033002B19D101237FE07B685B68022B43
:1037E80003D07B685B68032B07D13F4B1B6803F052
:1037F8000073002B09D101236FE03B4B1B6803F0DA
:103808000203002B01D1012367E0374B9B6823F0AB
:1038180003027B685B68344913438B6001F014F939
:10382800F8600AE001F010F90246FB68D31A41F289
:103838008832934201D903234FE02B4B9B6803F056
:103848000C027B685B689B009A42EBD1254B1B6896
:1038580003F007033A689A420CD2224B3A68D2B274
:103868001A70204B1B6803F007033A689A4201D08C
:10387800012332E07B681B6803F00403002B08D0A7
:10388800194B9B6823F4E0527B68DB6816491343A5
:103898008B607B681B6803F00803002B09D0124B70
:1038A8009B6823F460427B681B69DB000E49134365
:1038B8008B6000F021F802460B4B9B681B0903F054
:1038C8000F030A49CB5C22FA03F3094A1360094B38
:1038D8001B68184601F074F8002318461037BD46D7
:1038E80080BD00BF003C024000380240D84B0008B1
:1038F80004000020080000202DE9B04F94B000AF6C
:1039080000237B640023FB6400233B640023BB6427
:10391800794B9B6803F00C03082B0DD0082B00F2A1
:10392800E180002B02D0042B03D0DBE0734BBB6497
:10393800DBE0734BBB64D8E06F4B5B6803F03F037D
:103948007B646D4B5B6803F48003002B63D06A4B88
:103958005B689B090022BB63FA63BB6BC3F3080374
:103968003B6300237B63D7E90C4522462B464FF087
:1039780000004FF00001590141EAD26150010246AE
:103988000B462146511A3961294663EB01037B61D5
:103998004FF000024FF00003D7E904AB59468B0102
:1039A800514643EA916351468A015146B2EB0108F8
:1039B800594663EB01094FF000024FF000034FEA4C
:1039C800C90343EA58734FEAC8029046994623460A
:1039D80018EB0303BB602B4649EB0303FB604FF076
:1039E80000024FF00003D7E9024529464B02214661
:1039F80043EAD15321464A02104619467B6C0022FD
:103A0800BB62FA62D7E90A23FCF7E2FB02460B46DF
:103A18001346FB6458E0384B5B689B090022184644
:103A28001146C0F308033B6200237B62D7E908898B
:103A380042464B464FF000004FF00001590141EA61
:103A4800D261500102460B464146B2EB010A494693
:103A580063EB010B4FF000024FF000034FEA8B13AA
:103A680043EA9A634FEA8A12B2EB0A0463EB0B0546
:103A78004FF000024FF00003EB0043EA5473E200FA
:103A880014461D464346E3183B604B4645EB03038B
:103A98007B604FF000024FF00003D7E9004529464C
:103AA8008B02214643EA915321468A021046194661
:103AB8007B6C0022BB61FA61D7E90623FCF788FB1F
:103AC80002460B461346FB640B4B5B681B0C03F06A
:103AD800030301335B003B64FA6C3B6CB2FBF3F30A
:103AE800BB6402E0054BBB6400BFBB6C1846503793
:103AF800BD46BDE8B08F00BF003802400024F40086
:103B080000127A0080B400AF034B1B681846BD460C
:103B18005DF8047B704700BF0400002080B500AF4B
:103B2800FFF7F0FF0246054B9B689B0A03F007036B
:103B38000349CB5C22FA03F3184680BD00380240E3
:103B4800E84B000880B500AFFFF7DCFF0246054BE5
:103B58009B685B0B03F007030349CB5C22FA03F372
:103B6800184680BD00380240E84B000880B485B094
:103B780000AF786039607B6893F83C30012B01D145
:103B8800022350E07B68012283F83C207B680222F4
:103B980083F83D207B681B685B68FB607B681B685B
:103BA8009B68BB60FB6823F07003FB603B681B6885
:103BB800FA681343FB607B681B68FA685A607B6885
:103BC8001B681C4A934218D07B681B68B3F1804F6E
:103BD80013D07B681B68184A93420ED07B681B6819
:103BE800164A934209D07B681B68154A934204D051
:103BF8007B681B68134A93420CD1BB6823F080038F
:103C0800BB603B685B68BA681343BB607B681B6832
:103C1800BA689A607B68012283F83D207B6800229D
:103C280083F83C20002318461437BD465DF8047B12
:103C3800704700BF00000140000400400008004039
:103C4800000C00400040014080B483B000AF7860B1
:103C580000BF0C37BD465DF8047B704780B483B065
:103C680000AF786000BF0C37BD465DF8047B704735
:103C780080B582B000AF78607B68002B01D101234A
:103C880041E07B6893F83D30DBB2002B06D17B68BE
:103C9800002283F83C207868FDF7B2F87B6802229E
:103CA80083F83D207B681A687B6804331946104600
:103CB80000F088FA7B68012283F846207B6801229D
:103CC80083F83E207B68012283F83F207B6801222D
:103CD80083F840207B68012283F841207B68012219
:103CE80083F842207B68012283F843207B68012205
:103CF80083F844207B68012283F845207B680122F1
:103D080083F83D20002318460837BD4680BD0000D3
:103D180080B485B000AF78607B6893F83D30DBB243
:103D2800012B01D0012344E07B68022283F83D2067
:103D38007B681B68DA687B681B6842F00102DA60FE
:103D48007B681B681E4A934218D07B681B68B3F1D6
:103D5800804F13D07B681B681A4A93420ED07B6849
:103D68001B68194A934209D07B681B68174A93421B
:103D780004D07B681B68164A934211D17B681B6884
:103D88009B6803F00703FB60FB68062B10D07B6879
:103D98001B681A687B681B6842F001021A6007E01A
:103DA8007B681B681A687B681B6842F001021A600E
:103DB800002318461437BD465DF8047B704700BFE2
:103DC800000001400004004000080040000C0040D2
:103DD8000040014080B582B000AF78607B681B6806
:103DE8001B6903F00203022B22D17B681B68DB6886
:103DF80003F00203022B1BD17B681B686FF00202E1
:103E08001A617B6801221A777B681B689B6903F03B
:103E18000303002B03D0786800F0B5F905E0786853
:103E280000F0A7F9786800F0B8F97B6800221A77E3
:103E38007B681B681B6903F00403042B22D17B6891
:103E48001B68DB6803F00403042B1BD17B681B6829
:103E58006FF004021A617B6802221A777B681B687C
:103E68009B6903F44073002B03D0786800F08BF94A
:103E780005E0786800F07DF9786800F08EF97B68D5
:103E880000221A777B681B681B6903F00803082B5C
:103E980022D17B681B68DB6803F00803082B1BD161
:103EA8007B681B686FF008021A617B6804221A7726
:103EB8007B681B68DB6903F00303002B03D0786879
:103EC80000F061F905E0786800F053F9786800F0CF
:103ED80064F97B6800221A777B681B681B6903F00A
:103EE8001003102B22D17B681B68DB6803F01003DA
:103EF800102B1BD17B681B686FF010021A617B685E
:103F080008221A777B681B68DB6903F44073002B6F
:103F180003D0786800F037F905E0786800F029F9EF
:103F2800786800F03AF97B6800221A777B681B688A
:103F38001B6903F00103012B0ED17B681B68DB684A
:103F480003F00103012B07D17B681B686FF00102A6
:103F58001A617868FCF7E2FC7B681B681B6903F050
:103F68008003802B0ED17B681B68DB6803F080031D
:103F7800802B07D17B681B686FF080021A61786814
:103F8800FFF76CFE7B681B681B6903F04003402B3E
:103F98000ED17B681B68DB6803F04003402B07D118
:103FA8007B681B686FF040021A61786800F0FFF8C0
:103FB8007B681B681B6903F02003202B0ED17B68EC
:103FC8001B68DB6803F02003202B07D17B681B6884
:103FD8006FF020021A617868FFF736FE00BF0837D5
:103FE800BD4680BD80B584B000AF786039600023DD
:103FF800FB737B6893F83C30012B01D10223B4E0BA
:104008007B68012283F83C207B68022283F83D20EC
:104018007B681B689B68BB60BB6823F07703BB6049
:10402800BB6823F47F43BB607B681B68BA689A60EF
:104038003B681B68B3F5005F3ED0B3F5005F00F244
:104048008780B3F5805F00F08680B3F5805F7FD806
:10405800702B1AD0702B7BD8602B50D0602B77D860
:10406800502B3CD0502B73D8402B58D0402B6FD8B6
:10407800302B64D0302B6BD8202B60D0202B67D806
:10408800002B5CD0102B5AD062E07B6818683B6824
:1040980099683B685A683B68DB6800F08DF97B6873
:1040A8001B689B68BB60BB6843F07703BB607B6899
:1040B8001B68BA689A604FE07B6818683B68996823
:1040C8003B685A683B68DB6800F076F97B681B68D8
:1040D8009A687B681B6842F480429A603CE07B687F
:1040E80018683B6859683B68DB681A4600F0EAF8CC
:1040F8007B681B685021184600F043F92CE07B6868
:1041080018683B6859683B68DB681A4600F009F98B
:104118007B681B686021184600F033F91CE07B6857
:1041280018683B6859683B68DB681A4600F0CAF8AB
:104138007B681B684021184600F023F90CE07B6877
:104148001A683B681B681946104600F01AF903E024
:104158000123FB7300E000BF7B68012283F83D2048
:104168007B68002283F83C20FB7B18461037BD464D
:1041780080BD80B483B000AF786000BF0C37BD4607
:104188005DF8047B704780B483B000AF786000BFEF
:104198000C37BD465DF8047B704780B483B000AF30
:1041A800786000BF0C37BD465DF8047B704780B46B
:1041B80083B000AF786000BF0C37BD465DF8047B64
:1041C8007047000080B485B000AF786039607B68C4
:1041D8001B68FB607B68344A93420FD07B68B3F15D
:1041E800804F0BD07B68314A934207D07B68304AB6
:1041F800934203D07B682F4A934208D1FB6823F08F
:104208007003FB603B685B68FA681343FB607B687C
:10421800254A93421BD07B68B3F1804F17D07B6847
:10422800224A934213D07B68214A93420FD07B687D
:10423800204A93420BD07B681F4A934207D07B6881
:104248001E4A934203D07B681D4A934208D1FB68FB
:1042580023F44073FB603B68DB68FA681343FB6038
:10426800FB6823F080023B685B691343FB607B6853
:10427800FA681A603B689A687B68DA623B681A6871
:104288007B689A627B68084A934203D13B681A6943
:104298007B681A637B6801225A6100BF1437BD46E8
:1042A8005DF8047B704700BF000001400004004037
:1042B80000080040000C004000400140004401405C
:1042C8000048014080B487B000AFF860B9607A60F8
:1042D800FB681B6A7B61FB681B6A23F00102FB68B1
:1042E8001A62FB689B693B613B6923F0F0033B6101
:1042F8007B681B013A6913433B617B6923F00A031E
:104308007B617A69BB6813437B61FB683A699A6190
:10431800FB687A691A6200BF1C37BD465DF8047BEA
:10432800704780B487B000AFF860B9607A60FB6806
:104338001B6A23F01002FB681A62FB689B697B61A9
:10434800FB681B6A3B617B6923F470437B617B6874
:104358001B037A6913437B613B6923F0A0033B612C
:10436800BB681B013A6913433B61FB687A699A6130
:10437800FB683A691A6200BF1C37BD465DF8047BCA
:10438800704780B485B000AF786039607B689B68FF
:10439800FB60FB6823F07003FB603A68FB6813431B
:1043A80043F00703FB607B68FA689A6000BF143724
:1043B800BD465DF8047B704780B487B000AFF860F5
:1043C800B9607A603B60FB689B687B617B6923F41A
:1043D8007F437B613B681A027B681A43BB681343BF
:1043E8007A6913437B61FB687A699A6000BF1C375E
:1043F800BD465DF8047B704780B582B000AF786039
:104408007B68002B01D101233FE07B6893F83D30A6
:10441800DBB2002B06D17B68002283F83C20786849
:10442800FCF714FD7B68242283F83D207B681B6819
:10443800DA687B681B6822F40052DA60786800F05A
:1044480029F87B681B681A697B681B6822F490420C
:104458001A617B681B685A697B681B6822F02A020C
:104468005A617B681B68DA687B681B6842F40052F3
:10447800DA607B6800221A647B68202283F83D207A
:104488007B68202283F83E20002318460837BD4663
:1044980080BD00002DE9B04FC0B000AFC7F8F400F0
:1044A800D7F8F4301B681B6923F44050D7F8F43070
:1044B800D968D7F8F4301A6840EA01031361D7F8CD
:1044C800F4309A68D7F8F4301B691A43D7F8F430F7
:1044D8005B691A43D7F8F430DB691343C7F8F8303F
:1044E800D7F8F4301B68DB6823F4164121F00C017F
:1044F800D7F8F4301A68D7F8F8300B43D360D7F8F8
:10450800F4301B685B6923F44070D7F8F43099697C
:10451800D7F8F4301A6840EA01035361D7F8F43049
:104528001A688F4B9A4205D0D7F8F4301A688D4B29
:104538009A4204D1FFF706FBC7F8FC0003E0FFF737
:10454800EDFAC7F8FC00D7F8F430DB69B3F5004F93
:1045580040F00C81D7F8FC300022C7F8E830C7F8E3
:10456800EC20D7E93A4522462B469118B9655B41BC
:10457800FB65D7E91623214612EB0108294643EBD0
:1045880001094FF000024FF000034FEAC90343EA64
:1045980058734FEAC80290469946234618EB03031E
:1045A800C7F8E0302B4649EB0303C7F8E430D7F8E7
:1045B800F4305B680022C7F8D830C7F8DC20D7E9A8
:1045C80036120B46DB183B65134642EB03037B654B
:1045D800D7E91423D7E93801FBF7FAFD02460B4661
:1045E800614BA3FB02235B091C01D7F8FC300022B6
:1045F800C7F8D030C7F8D420D7E9348942464B46AB
:104608009118B9645B41FB64D7E91223414612EB68
:10461800010A494643EB010B4FF000024FF000033B
:104628004FEACB0343EA5A734FEACA0292469B46C3
:1046380043461AEB0303C7F8C8304B464BEB03035A
:10464800C7F8CC30D7F8F4305B680022C7F8C03020
:10465800C7F8C420D7E930120B46DB183B64134671
:1046680042EB03037B64D7E91023D7E93201FBF758
:10467800AFFD02460B4611463B4BA3FB01235B09EA
:10468800642202FB03F3CB1ADB0003F13202364B40
:10469800A3FB02235B095B0003F4F8731C44D7F8FF
:1046A800FC300022C7F8B830C7F8BC20D7E92E89FB
:1046B80042464B469118B9635B41FB63D7E90E2329
:1046C80041465118396349464B417B634FF000021C
:1046D8004FF00003D7E90CAB5946CB00514643EAEB
:1046E80051735146CA0010461946034642469B1864
:1046F800C7F8B0304B460A4642EB0303C7F8B4305C
:10470800D7F8F4305B680022C7F8A830C7F8AC20A7
:10471800D7E92A120B46DB18BB62134642EB0303A8
:10472800FB62D7E90A23D7E92C01FBF751FD0246C2
:104738000B460D4BA3FB02135B09642101FB03F33A
:10474800D31ADB003233084AA2FB03235B0903F0C8
:104758000702D7F8F4301B6822449A6005E100BFCD
:1047680000100140001401401F85EB51D7F8FC30C0
:104778000022C7F8A030C7F8A420D7E92889424604
:104788004B46911839625B417B62D7E90823414661
:104798005418494643EB01054FF000024FF000035F
:1047A800EB0043EA5473E20014461D464346E318FF
:1047B800C7F898304B4645EB0303C7F89C30D7F849
:1047C800F4305B680022C7F89030C7F894204FF0A7
:1047D80000024FF00003D7E9244529468B00214603
:1047E80043EA917321468A00D7E92601FBF7F0FCDA
:1047F80002460B46604BA3FB02235B091C01D7F85A
:10480800FC300022C7F88830C7F88C20D7E9228905
:1048180042464B469118B9615B41FB61D7E90623D3
:1048280041465118396149464B417B614FF00002BE
:104838004FF00003D7E904AB5946CB00514643EA91
:1048480051735146CA0010461946034642469B1802
:10485800C7F880304B460A4642EB0303C7F884305A
:10486800D7F8F4305B680022BB67FA674FF00002A4
:104878004FF00003D7E91E8949468B00414643EAB9
:10488800917341468A00D7E92001FBF7A1FC024653
:104898000B46394BA3FB02135B09642101FB03F3AD
:1048A800D31A1B013233344AA2FB03235B0903F0FA
:1048B800F0031C44D7F8FC3000223B677A67D7E93D
:1048C8001C8942464B469118B9605B41FB60D7E9A9
:1048D800022341465118396049464B417B604FF0ED
:1048E80000024FF00003D7E900AB5946CB00514610
:1048F80043EA51735146CA001046194603464246D8
:104908009B18BB664B460A4642EB0303FB66D7F887
:10491800F4305B6800223B667A664FF000024FF085
:104928000003D7E9188949468B00414643EA917349
:1049380041468A00D7E91A01FBF74AFC02460B46B2
:104948000D4BA3FB02135B09642101FB03F3D31A8C
:104958001B013233084AA2FB03235B0903F00F0251
:10496800D7F8F4301B6822449A6000BF07F58077B7
:10497800BD46BDE8B08F00BF1F85EB5180B500AFC5
:104988000E4B1B680D4A43F4007313600B4B1B68F6
:104998000A4A43F480631360084B1B68074A43F4D0
:1049A800807313600320FCF7F5FB002000F008F883
:1049B800FCF7A6F90023184680BD00BF003C024062
:1049C80080B582B000AF7860124B1A68124B1B7822
:1049D80019464FF47A73B3FBF1F3B2FBF3F31846BD
:1049E800FCF70DFC0346002B01D001230EE07B6889
:1049F8000F2B0AD8002279684FF0FF30FCF7D5FB5F
:104A0800064A7B681360002300E001231846083734
:104A1800BD4680BD040000200C00002008000020D6
:104A280080B400AF064B1B781A46064B1B6813442C
:104A3800044A136000BFBD465DF8047B704700BFA1
:104A48000C0000201801002080B400AF034B1B6845
:104A58001846BD465DF8047B704700BF180100206A
:104A680080B584B000AF7860FFF7EEFFB8607B6870
:104A7800FB60FB68B3F1FF3F05D00A4B1B781A4671
:104A8800FB681344FB6000BFFFF7DEFF0246BB680C
:104A9800D31AFA689A42F7D800BF00BF1037BD464C
:104AA80080BD00BF0C00002070B50D4D0D4C641B7F
:104AB800A4100026A64209D10B4D0C4C00F07CF83E
:104AC800641BA4100026A64205D170BD55F8043B0E
:104AD80098470136EEE755F8043B98470136F2E768
:104AE800204C0008204C0008204C0008244C0008EA
:104AF800931E222B10B50C4604D900230B701C46BC
:104B0800204610BD0A2A09D1002807DA2D230B7088
:104B180040420121214400F00DF8F1E70021F9E7B6
:104B2800FFF7E6BF02440346934200D1704703F8FB
:104B3800011BF9E7F0B51F4C8BB005460B466E46D6
:104B480004F1200C20686168374603C708346445BF
:104B58003E46F7D121793971911E206838602229A3
:104B68004FF0000104D919700B4618460BB0F0BD80
:104B7800581E8446B5FBF2F702FB175628366E44DA
:104B88000C4616F8286C0CF8016F2E46B24201F15B
:104B980001013D46EED900225A541919A51AAA4214
:104BA800E3DA10F8015F0E780670013201F8015956
:104BB800F4E700BFF04B0008F8B500BFF8BC08BC2C
:104BC8009E467047F8B500BFF8BC08BC9E467047C3
:104BD80000000000000000000102030406070809A5
:104BE8000000000001020304303132333435363717
:104BF80038396162636465666768696A6B6C6D6E93
:104C08006F707172737475767778797A0000000026
:084C1800F0B5FF7F0100000070
:044C2000BD010008CA
:044C240099010008EA
:104C28000A0A0A000024F400100000000100000035
:0400000508000FA937
:00000001FF
